:020000040800F2
:100000003004002045010008A30400089F020008F6
:10001000A1040008B9010008110A0008000000004E
:10002000000000000000000000000000550700086C
:10003000BB01000800000000890600080D08000848
:100040005F0100085F0100085F0100085F01000810
:100050005F0100085F0100085F0100085F01000800
:100060005F0100085F0100085F0100085F010008F0
:100070005F0100085F0100085F0100085F010008E0
:100080005F0100085F0100085F0100085F010008D0
:100090005F0100085F0100085F0100085F010008C0
:1000A0005F0100085F0100085F0100085F010008B0
:1000B0005F0100085F0100085F0100085F010008A0
:1000C0005F0100085F0100085F0100085F01000890
:1000D0005F0100085F0100085F0100085F01000880
:1000E0005F0100085F0100085F0100085F01000870
:1000F0005F0100085F0100085F0100085F01000860
:100100005F0100085F0100085F0100085F0100084F
:100110005F0100085F0100085F0100085F0100083F
:100120005F0100085F0100085F0100085F0100082F
:10013000DFF80CD000F02EF800480047D90C00087A
:10014000300400200648804706480047FEE7FEE7E7
:10015000FEE7FEE7FEE7FEE7FEE7FEE7FEE7FEE777
:10016000550800083101000830B50B460146002053
:100170002022012409E021FA02F59D4205D303FA69
:1001800002F5491B04FA02F52844151EA2F10102EA
:10019000F1DC30BD064C074D06E0E06840F001039D
:1001A00094E8070098471034AC42F6D3FFF7C4FF39
:1001B0005417000874170008FEE7704701B503489C
:1001C0000099016001680029FCD108BD28000020C9
:1001D00030B5024600244FF47A7503E02846FFF755
:1001E000EDFF521E9442F9D330BD2DE9F0410022BB
:1001F000CC7804F00F03E40601D58C7823430C7807
:100200004FF00F0714F0FF0F4FF0010C1CD00568E2
:100210000CFA02F40E882640A64211D1960007FA85
:1002200006F825EA080503FA06F848EA0505CE7837
:10023000282E02D0482E02D002E0446100E0046182
:10024000521C082AE4D305600A88FF2A1ED9456893
:10025000002202F108060CFA06F40E882640A64297
:1002600010D1960007FA06F825EA080503FA06F801
:1002700048EA0505CE78282E00D14461CE78482E74
:1002800000D10461521C082AE3D34560BDE8F08127
:10029000806880B270474161704701617047FEE736
:1002A00070B505460C4600F0D9FC782000F0ACFC97
:1002B00000F0F6FC68B9284600F0A6FC00F0F0FC5F
:1002C00038B9204600F0A0FC00F0EAFC08B900F0C4
:1002D000D9FCBDE8704000F0D5BC000070B510241A
:1002E00000F0BAF85B4D2846FFF7D2FF00F47F40DC
:1002F000B0F5706F6FD00A20FFF760FF210128462C
:10030000FFF7CBFF4FF460612846FFF7C4FF284694
:10031000FFF7BEFF00F47F40B0F5885F09D0B0F56D
:10032000045F08D0B0F5824F07D0B0F5014F07D178
:1003300005E0012404E0022402E0032400E00C2490
:100340000520FFF73BFF4FF400712846FFF7A5FF9C
:100350004FF450612846FFF79EFF2846FFF798FFAD
:1003600000F47F40B0F5905F09D0B0F5085F08D089
:10037000B0F5844F07D0B0F5024F07D105E0042453
:1003800004E0052402E0062400E00D240520FFF728
:1003900015FF4FF480612846FFF77FFF4FF430616F
:1003A0002846FFF778FF2846FFF772FF00F47F40EA
:1003B000B0F5A05F09D0B0F5105F08D0B0F5884F58
:1003C00007D0B0F5044F08D106E0072405E0082463
:1003D00003E0092401E03BE00E240520FFF7EEFED8
:1003E0004FF4006631462846FFF757FF4FF4E061AF
:1003F0002846FFF750FF2846FFF74AFF00F47F40EA
:10040000B0F5C05F09D0B0F5205F08D0B0F5904FCF
:1004100007D0B0F5084F07D105E00A2404E0002416
:1004200002E00B2400E00F240520FFF7C7FE28465A
:10043000FFF72EFF00F47F40B042F8D10A20FFF70B
:10044000BDFE2846FFF724FF00F47F40B042EED106
:10045000204670BD0010014038B50121102000F089
:1004600015F910208DF803004FF47060ADF800000E
:1004700003248DF80240094D69462846FFF7B5FE72
:1004800028218DF803104FF47041ADF800108DF85D
:10049000024069462846FFF7A8FE38BD001001401B
:1004A000FEE770470020AFF3008070B506460025D8
:1004B00005F1B000C0B200F0ACFA002000F0A9FADB
:1004C000102000F0A6FA0024304600F0A6FA641CC2
:1004D000E4B2802CF8D36D1CEDB2082DE8D370BDCA
:1004E00010B50120FFF774FEAE2000F092FA202034
:1004F00000F08FFA102000F08CFAB02000F089FA9A
:10050000C82000F086FA002000F083FA102000F0E6
:1005100080FA402000F07DFA812000F07AFAFF2076
:1005200000F077FAA12000F074FAA62000F071FA2A
:10053000A82000F06EFA3F2000F06BFAA42000F033
:1005400068FAD32000F065FA002000F062FAD520A6
:1005500000F05FFAF02000F05CFAD92000F059FAC0
:10056000222000F056FADA2000F053FA122000F0B0
:1005700050FADB2000F04DFA202000F04AFA8D20DE
:1005800000F047FA142000F044FABDE81040AF2014
:1005900000F03FBA10B50446B031C8B200F039FAE5
:1005A000102040EA141000F034FA04F00F00BDE807
:1005B000104040F0010000F02CBA00002DE9F04797
:1005C00004460F4691460026012B22D0022B24D14F
:1005D000DFF8ACA04EE0203800F0FF087E2C02D9F6
:1005E00000247F1CFFB239462046FFF7D3FF0025C9
:1005F000244908EB480001EB400818F8050000F01A
:100600000CFA6D1CEDB2062DF7D3A41DE4B2761CD6
:10061000F6B219F806000028DDD1BDE8F0872038D1
:1006200000F0FF08782C02D900247F1CFFB2394665
:100630002046FFF7AFFF002505EB08101AF8000071
:1006400000F0EBF96D1CEDB2082DF5D3781CC1B2AA
:100650002046FFF79FFF002505EB08105044007A65
:1006600000F0DBF96D1CEDB2082DF5D30834E4B2CF
:10067000761CF6B219F806000028D0D1CDE70000AC
:10068000641100083C0F000870470000054A00296B
:1006900003D09169014391617047916981439161F0
:1006A000704700000010024010B5264A516801F062
:1006B0000C01254B002927D0042927D0082927D051
:1006C0000360516801F0F0010909204B5C5C01688E
:1006D000E1404160546804F4E064240A1C5D21FA9E
:1006E00004F48460546804F46054E40A1B5DD94047
:1006F000C160526802F44042920B144B1B1F9A5C7B
:10070000B1FBF2F1016110BD0360DAE70360D8E7E5
:10071000516801F47011536803F48033022404EB30
:10072000914133B153689B0307D5094B594301608D
:10073000C7E7074B59430160C3E7034B59430160C7
:10074000BFE700000010024000127A0018000020ED
:1007500000093D00704700F001B800000CB5002210
:10076000019200922748016841F4803101604FF402
:10077000A063016801F4003100910199491C0191C5
:10078000009911B901999942F3D10168890302D501
:100790000121009100E000920099012930D11A490D
:1007A0000A6842F010020A600A6822F003020A6036
:1007B0000A6842F002020A60416841604168416093
:1007C000416841F480614160416821F47C114160DD
:1007D000416841F4E8114160016841F080710160B5
:1007E00001688901FCD5416821F00301416041683D
:1007F00041F0020141604168C1F381010229FAD14F
:100800000CBD0000001002400020024000F04AB879
:100810000E484FF47A710068B0FBF1F0B0F1807FC0
:1008200001D301200DE020F07F414FF0E020491E70
:100830004161074AF02111700021816107210161A6
:100840000020002800D0FEE77047000000000020D4
:1008500023ED00E010B50F48016841F0010101608F
:1008600041680D4A1140416001680C4A1140016025
:10087000016821F480210160416821F4FE0141609A
:100880004FF41F018160FFF766FF05494FF00060DC
:10089000086010BD001002400000FFF8FFFFF6FEE8
:1008A00008ED00E003480168002902D00168491EF4
:1008B0000160704728000020002904D0818941F49C
:1008C000005181817047818921F4005181817047F5
:1008D00010B586B001210420FFF7D8FE012188035E
:1008E000FFF7D4FE4FF40070ADF8140018208DF817
:1008F000170003208DF81600144C05A92046FFF7B9
:1009000074FC2115ADF8141004218DF8171005A9F9
:100910002046FFF76AFC4FF4E13001900020ADF86B
:100920000800ADF80A00ADF80C00ADF810000C207E
:10093000ADF80E00064C01A9204600F00BF801218D
:100940002046FFF7B9FF06B010BD000000080140C7
:100950000038014030B585B004460D46208A4CF67B
:10096000FF710840E98801432182A0894EF6F31106
:100970000840A9882A8911436A8902431143A18149
:10098000A08A4FF6FF410840A9890143A182684629
:10099000FFF78AFE1D48844201D1039800E00298C7
:1009A000A189090408D500EBC00101EB00102968FA
:1009B0004900B0FBF1F007E000EBC00101EB0010D3
:1009C00029688900B0FBF1F06422B0FBF2F1090163
:1009D0000B096FF018056B4300EB8300A3891D041E
:1009E0004FF0320307D503EBC000B0FBF2F000F08C
:1009F0000700084306E003EB0010B0FBF2F000F044
:100A00000F000843208105B030BD000000380140D0
:100A1000FEE701460020FFF743BC01464020FFF7F8
:100A20003FBC00000FB4084B10B504A902AA0398FC
:100A300000F01CF8044602A9002000F0C1F820468E
:100A400010BC5DF814FB0000C10B000802E008C8F0
:100A5000121F08C1002AFAD170477047002001E038
:100A600001C1121F002AFBD1704700002DE9FF4F82
:100A700089B09B460446002506E025280BD05A463F
:100A80000B999047641C6D1C20780028F5D10DB09F
:100A90002846BDE8F08F0027B8460122474900E00C
:100AA000074314F8013F203B02FA03F00842F7D154
:100AB00020782E2819D114F8010F47F004072A28AE
:100AC0000ED06FF02F022078A0F1300109290CD848
:100AD00008EB880102EB410100EB0108641CF2E71E
:100AE0000A98641C50F8048B0A9020780028CED015
:100AF000642808D0692806D075281ED05A460B995C
:100B000090476D1C58E00A994FF00A0901C90A91F3
:100B1000002802DA40422D2102E0390504D52B21BC
:100B20008DF82010012103E0F90704D02021F7E718
:100B30008A4608AE0DE00021FAE70A994FF00A094B
:100B400001C90A91F7E74946FFF70EFB303106F875
:100B5000011D0028F7D1ADEB060000F12009780750
:100B600001D44FF00108C84502DDA8EB090000E000
:100B700000208046002706E008A85A46C05D0B9971
:100B800090476D1C7F1C5745F6DB04E030205A4629
:100B90000B9990476D1CB8F10001A8F10108F5DC34
:100BA00005E016F8010B5A460B9990476D1CB9F1F8
:100BB0000001A9F10109F4DC641C65E709280100C2
:100BC0000A68531C0B6010707047000008B50121C3
:100BD0000420FFF75BFD3020ADF8000003208DF806
:100BE000020014208DF8030069460348FFF7FDFA60
:100BF00000F048F808BD0000000801400020401C3B
:100C0000C0B20A28FBD370472DE9F04705460024FF
:100C1000DFF8449010264FF02008A9F104072806B9
:100C200002D5C7F8008001E0C9F80080FFF7E6FFB1
:100C30003E60FFF7E3FFC9F80060072C01D1C7F859
:100C400000806806050EFFF7D9FF641CE4B2082C8B
:100C5000E5D3BDE8F08700001408014070B50848EE
:100C60002024046010250560FFF7C8FF044E361DE0
:100C70003460FFF7C3FF3560BDE87040FFF7BEBFCB
:100C80001008014070B5054820240460034D102071
:100C90002D1F2860FFF7B2FF2C6070BD14080140C3
:100CA00070B50C4C20202060FFF7A8FF10252560B0
:100CB000FFF7A4FF074808380068800601D5012423
:100CC00000E000240348001D0560FFF797FF204661
:100CD00070BD0000100801401CB5FFF7F9FDFFF7DB
:100CE00097FDFFF773FFFFF7FBFBFF20FFF7DDFB2F
:100CF0000220FFF76DFA0020FFF7D7FBFFF7EEFAAF
:100D0000FFF7ECFA0C287CD1FFF7CCFB022381A281
:100D100000210520FFF752FCFFF7E0FA01E0FFF7A2
:100D2000DDFA0A28FBD00B28F9D00C28F7D00D28C3
:100D3000F5D00E28F3D00F28F1D01028EFD000EB1B
:100D4000C00101EB00104FF6FF7101EA800422465A
:100D500072A101A8FFF766FE022301AA0321002069
:100D6000FFF72CFC6420FFF729FAFFF7B7FA01E040
:100D7000FFF7B4FA0A28FBD00B28F9D00C28F7D0DB
:100D80000D28F5D00E28F3D00F28F1D01028EFD081
:100D900000EB800004EB400084B222465FA101A872
:100DA000FFF740FE022301AA03210020FFF706FC03
:100DB0006420FFF703FAFFF791FA01E0FFF78EFADC
:100DC0000A28FBD00B28F9D00C28F7D00D28F5D035
:100DD0000E28F3D00F28F1D01028EFD0204484B291
:100DE00022464EA101A8FFF71DFE022301AA0321FE
:100DF0000020FFF7E3FB6420FFF7E0F9FFF76EFA4E
:100E000002E06DE0FFF76AFA0A28FBD1224643A10F
:100E100001A8FFF707FE022301AA03210020FFF724
:100E2000CDFB6420FFF7CAF90024FFF757FA01E071
:100E3000FFF754FA0A28FBD00B28F9D00C28F7D07A
:100E40000D28F5D00E28F3D00F28F1D01028EFD0C0
:100E500000EB800004EB400084B222462FA16846DC
:100E6000FFF7E0FD02236A4605210020FFF7A6FBFD
:100E70006420FFF7A3F9FFF731FA01E0FFF72EFA3C
:100E80000A28FBD00B28F9D00C28F7D00D28F5D074
:100E90000E28F3D00F28F1D01028EFD0204484B2D0
:100EA00022461EA16846FFF7BDFD02236A460521C2
:100EB0000020FFF783FB6420FFF780F9FFF70EFAAD
:100EC00001E0FFF70BFA0A28FBD1224613A168467E
:100ED000FFF7A8FD02236A4605210020FFF76EFBFD
:100EE000FFF7FCF90D2807D1FFF7DCFA02230FA268
:100EF00000210520FFF762FBFFF7F0F90E287FF4D1
:100F0000FDAEFFF7CFFA02230AA200210520FFF76A
:100F100055FBF3E64D6F646520310000446973743E
:100F2000656E6365203D2025750000004D6F64658A
:100F3000203200004D6F6465203300000000000087
:100F400000000000002F0000000007000700001450
:100F50007F147F1400242A7F2A120062640813235E
:100F600000364955225000000503000000001C22F5
:100F70004100000041221C000014083E0814000833
:100F8000083E0808000000A06000000808080808E3
:100F9000000060600000002010080402003E51497B
:100FA000453E0000427F4000004261514946002119
:100FB00041454B31001814127F1000274545453933
:100FC000003C4A494930000171090503003649498E
:100FD000493600064949291E000036360000000047
:100FE0005636000000081422410000141414141492
:100FF000000041221408000201510906003249593B
:10100000513E007C1211127C007F49494936003E56
:1010100041414122007F4141221C007F4949494111
:10102000007F09090901003E4149497A007F08080B
:10103000087F0000417F4100002040413F01007FC8
:1010400008142241007F40404040007F020C027F94
:10105000007F0408107F003E4141413E007F0909A6
:101060000906003E4151215E007F091929460046CC
:10107000494949310001017F0101003F4040403FA3
:10108000001F2040201F003F4038403F00631408ED
:1010900014630007087008070061514945430000C8
:1010A0007F41410000552A552A55000041417F00EB
:1010B00000040201020400404040404000000102E0
:1010C0000400002054545478007F484444380038C9
:1010D0004444442000384444487F00385454541851
:1010E00000087E0901020018A4A4A47C007F080463
:1010F00004780000447D4000004080847D00007F33
:10110000102844000000417F4000007C041804784F
:10111000007C0804047800384444443800FC24244B
:1011200024180018242418FC007C08040408004833
:101130005454542000043F444020003C4040207C54
:10114000001C2040201C003C4030403C0044281043
:101150002844001CA0A0A07C004464544C441414F7
:10116000141414140000000000000000000000002F
:1011700000000000000000F8000000000000003344
:101180003000000000100C06100C060000000000EB
:101190000000000040C07840C0784000043F0404D4
:1011A0003F040400007088FC08300000001820FF95
:1011B000211E0000F008F000E018000000211C03D0
:1011C0001E211E0000F00888700000001E2123244C
:1011D0001927211010160E0000000000000000006A
:1011E00000000000000000E01804020000000007FA
:1011F0001820400000020418E00000000040201801
:1012000007000000404080F0804040000202010FD3
:1012100001020200000000F0000000000101011FB7
:1012200001010100000000000000000080B070001B
:1012300000000000000000000000000000010101AB
:10124000010101010000000000000000003030003A
:101250000000000000000000806018040060180614
:101260000100000000E010080810E000000F10204E
:1012700020100F00001010F8000000000020203F98
:101280002020000000700808088870000030282422
:1012900022213000003008888848300000182020C3
:1012A00020110E000000C02010F8000000070424E8
:1012B000243F240000F8088888080800001921202D
:1012C00020110E0000E0108888180000000F112087
:1012D00020110E0000380808C83808000000003F40
:1012E000000000000070880808887000001C22219F
:1012F00021221C0000E010080810E000000031224C
:1013000022110F00000000C0C000000000000030EB
:10131000300000000000008000000000000080603D
:1013200000000000000080402010080000010204BE
:1013300008102000404040404040400004040404A5
:101340000404040000081020408000000020100861
:1013500004020100007048080808F0000000003096
:1013600036010000C030C828E810E0000718272424
:1013700023140B000000C038E0000000203C2302D2
:101380000227382008F8888888700000203F202035
:1013900020110E00C0300808080838000718202067
:1013A0002010080008F808080810E000203F20205E
:1013B00020100F0008F88888E8081000203F20203F
:1013C0002320180008F88888E8081000203F200033
:1013D00003000000C030080808380000071820206B
:1013E000221E020008F808000008F808203F21012A
:1013F00001213F20000808F8080800000020203FD5
:101400002020000000000808F8080800C080808044
:101410007F00000008F888C028180800203F20013D
:101420002638200008F8080000000000203F202097
:101430002020300008F8F800F8F80800203F003FAE
:10144000003F200008F830C00008F808203F2000C6
:1014500007183F00E01008080810E0000F102020D7
:1014600020100F0008F808080808F000203F2101AC
:1014700001010000E01008080810E0000F18242403
:1014800038504F0008F8888888887000203F200076
:10149000030C30200070880808083800003820212C
:1014A00021221C00180808F8080818000000203F36
:1014B0002000000008F808000008F808001F20209D
:1014C00020201F000878880000C83808000007386E
:1014D0000E010000F80800F80008F800033C0700BF
:1014E000073C0300081868808068180820302C0327
:1014F000032C30200838C800C83808000000203FFE
:101500002000000010080808C838080020382621EC
:1015100020201800000000FE020202000000007FF0
:1015200040404000000C30C00000000000000001FE
:101530000638C00000020202FE00000000404040E9
:101540007F0000000000040202020400000000000E
:10155000000000000000000000000000808080808B
:101560008080808000020204000000000000000073
:10157000000000000000808080800000001924220C
:1015800022223F2008F8008080000000003F112048
:1015900020110E000000008080800000000E11204D
:1015A00020201100000000808088F800000E11202B
:1015B00020103F200000808080800000001F222239
:1015C00022221300008080F0888888180020203FA5
:1015D000202000000000808080808000006B9494B8
:1015E0009493600008F8008080800000203F210074
:1015F00000203F2000809898000000000020203F3D
:1016000020200000000000809898000000C080802A
:10161000807F000008F8000080808000203F2402C6
:101620002D302000000808F8000000000020203FB6
:10163000202000008080808080808000203F20006B
:101640003F20003F8080008080800000203F2100FC
:1016500000203F200000808080800000001F2020AC
:1016600020201F00808000808000000080FFA120DB
:1016700020110E000000008080808000000E1120EC
:1016800020A0FF80808080008080800020203F217B
:10169000200001000000808080808000003324242E
:1016A00024241900008080E0808000000000001FDA
:1016B000202000008080000000808000001F20208B
:1016C00020103F20808080000080808000010E304C
:1016D0000806010080800080008080800F300C03AD
:1016E0000C300F0000808000808080000020312EB0
:1016F0000E312000808080000080808080818E708C
:101700001806010000808080808080000021302C3D
:101710002221300000000000807C02020000000056
:10172000003F404000000000FF00000000000000FB
:10173000FF0000000002027C800000000040403FEB
:101740000000000000060101020204040000000085
:101750000000000074170008000000202C000000AA
:101760004C0A0008A01700082C0000200404000008
:101770005C0A000800A24A0400000000000000000B
:10178000010203040607080902040608000000001D
:101790000102030401020304060708090000000017
:0400000508000131BD
:00000001FF
