:020000040800F2
:100000003804002045010008A50700081703000870
:1000100051050008B9010008450F00080000000064
:10002000000000000000000000000000C50B0008F8
:10003000BD010008000000005D0A0008B10C0008C6
:100040005F0100085F0100085F0100085F01000810
:100050005F0100085F0100085F0100085F01000800
:100060005F0100085F0100085F0100085F010008F0
:100070005F0100085F0100085F0100085F010008E0
:100080005F0100085F0100085F0100085F010008D0
:100090005F0100085F0100085F0100085F010008C0
:1000A0005F0100085F0100085F0100085F010008B0
:1000B0005F0100085F0100085F0100085F010008A0
:1000C0005F0100085F0100085F0100085F01000890
:1000D0005F0100085F0100085F0100085F01000880
:1000E0005F0100085F0100085F0100085F01000870
:1000F0005F0100085F0100085F0100085F01000860
:100100005F0100085F0100085F0100085F0100084F
:100110005F0100085F0100085F0100085F0100083F
:100120005F0100085F0100085F0100085F0100082F
:10013000DFF80CD000F02EF8004800472D12000820
:10014000380400200648804706480047FEE7FEE7DF
:10015000FEE7FEE7FEE7FEE7FEE7FEE7FEE7FEE777
:100160001D0D00083101000830B50B460146002086
:100170002022012409E021FA02F59D4205D303FA69
:1001800002F5491B04FA02F52844151EA2F10102EA
:10019000F1DC30BD064C074D06E0E06840F001039D
:1001A00094E8070098471034AC42F6D3FFF7C4FF39
:1001B000C81A0008E81A000800BFFEE770470000F0
:1001C00001B504490098086000BF02480068002893
:1001D000FBD108BD3000002010B50246002404E029
:1001E0004FF47A70FFF7ECFF521E9442F8D310BD23
:1001F0002DE9F041024600250026002000230024BE
:10020000002791F803C00CF00F0591F803C00CF023
:10021000100CBCF1000F03D091F802C04CEA0505A8
:1002200091F800C0BCF1000F31D0146800202BE021
:100230004FF0010C0CFA00F3B1F800C00CEA030611
:100240009E4220D183004FF00F0C0CFA03F7BC4301
:1002500005FA03FC4CEA040491F803C0BCF1280F32
:1002600006D14FF0010C0CFA00FCC2F814C00AE0F1
:1002700091F803C0BCF1480F05D14FF0010C0CFA06
:1002800000FCC2F810C0401C0828D1D31460B1F89B
:1002900000C0BCF1FF0F34DD546800202EE000F1F7
:1002A000080C4FF0010808FA0CF3B1F800C00CEA92
:1002B00003069E4221D183004FF00F0C0CFA03F786
:1002C000BC4305FA03FC4CEA040491F803C0BCF1FA
:1002D000280F05D100F1080C08FA0CF8C2F81480B8
:1002E00091F803C0BCF1480F07D100F1080C4FF0A2
:1002F000010808FA0CF8C2F81080401C0828CED378
:100300005460BDE8F0810146886880B27047416161
:1003100070470161704700BFFEE770B505460C46A7
:1003200000F03EFF782000F011FF00F061FF00B107
:1003300010E0284600F00AFF00F05AFF00B109E083
:10034000204600F003FF00F053FF00B102E000F090
:100350003FFF00BF00F03CFF70BD000070B51025EE
:10036000002400F0D1F86748FFF7CDFF044604F4FD
:100370007F44B4F5706F73D00A20FFF721FFB4F506
:10038000706FF8D029015F48FFF7C3FF4FF4606139
:100390005C48FFF7BCFF5B48FFF7B5FF044604F479
:1003A0007F44B4F5885F09D0B4F5045F08D0B4F594
:1003B000824F07D0B4F5014F08D105E0012505E0D3
:1003C000022503E0032501E00C2500BF00BF052046
:1003D000FFF7F6FE4FF400714A48FFF79AFF4FF41B
:1003E00050614848FFF793FF4648FFF78CFF0446EB
:1003F00004F47F44B4F5905F09D0B4F5085F08D0E9
:10040000B4F5844F07D0B4F5024F08D105E00425B8
:1004100005E0052503E0062501E00D2500BF00BF2E
:100420000520FFF7CDFE4FF480613648FFF771FFDE
:100430004FF430613348FFF76AFF3248FFF763FF3C
:10044000044604F47F44B4F5A05F0AD0B4F5105F0D
:1004500009D0B4F5884F08D0B4F5044F09D106E0AF
:100460004DE0072505E0082503E0092501E00E25FC
:1004700000BF00BF0520FFF7A3FE4FF40061214835
:10048000FFF747FF4FF4E0611E48FFF740FF1D48AC
:10049000FFF739FF044604F47F44B4F5C05F09D088
:1004A000B4F5205F08D0B4F5904F07D0B4F5084FED
:1004B00008D105E00A2505E0002503E00B2501E051
:1004C0000F2500BF00BF0520FFF77AFE15E00D489D
:1004D000FFF719FF044604F47F44B4F5006F0CD114
:1004E0000A20FFF76DFE0748FFF70DFF044604F4EE
:1004F0007F44B4F5006F00D100E0E8E700BF284674
:1005000070BD00000010014008B50121102000F06E
:10051000B7FA10208DF803004FF47060ADF80000BA
:1005200003208DF8020069460848FFF761FE282085
:100530008DF803004FF47040ADF8000003208DF8F3
:10054000020069460148FFF753FE08BD0010014054
:1005500000BFFEE710B5002400F07AF9022388A25C
:100560000021052000F004FAFFF7F8FE044602E03F
:10057000FFF7F4FE04460A2CFAD00B2CF8D00C2C12
:10058000F6D00D2CF4D00E2CF2D00F2CF0D0102C75
:10059000EED004EBC40000EB04104FF6FF7101EA4B
:1005A0008000794908800846028878A17B4800F0DD
:1005B000D9FC0223794A0321002000F0D9F96420F4
:1005C000FFF7FEFDFFF7CAFE044602E0FFF7C6FE96
:1005D00004460A2CFAD00B2CF8D00C2CF6D00D2C9B
:1005E000F4D00E2CF2D00F2CF0D0102CEED004EB67
:1005F00084006549098801EB40006349088008468A
:10060000028862A1654800F0ADFC0223634A032121
:10061000002000F0ADF96420FFF7D2FDFFF79EFE49
:10062000044602E0FFF79AFE04460A2CFAD00B2C8F
:10063000F8D00C2CF6D00D2CF4D00E2CF2D00F2CC0
:10064000F0D0102CEED05048008820444E4908804D
:10065000084602884DA1514800F084FC02234F4A0D
:100660000321002000F084F96420FFF7A9FDFFF7C3
:1006700075FE044602E0FFF771FE04460A2CFAD12B
:100680004148028841A1454800F06CFC0223434ADE
:100690000321002000F06CF96420FFF791FD002099
:1006A00039490880FFF75AFE044602E0FFF756FE7C
:1006B00004460A2CFAD00B2CF8D00C2CF6D00D2CBA
:1006C000F4D00E2CF2D00F2CF0D0102CEED004EB86
:1006D00084002D49098801EB40002B490880084619
:1006E00002882AA12E4800F03DFC02232C4A052155
:1006F000002000F03DF96420FFF762FDFFF72EFEB9
:10070000044602E0FFF72AFE04460A2CFAD00B2C1E
:10071000F8D00C2CF6D00D2CF4D00E2CF2D00F2CDF
:10072000F0D0102CEED018480088204416490880DC
:100730000846028815A11A4800F014FC0223184A42
:100740000521002000F014F96420FFF739FDFFF7C0
:1007500005FE044602E0FFF701FE04460A2CFAD12A
:100760000948028809A10E4800F0FCFB02230C4A4C
:100770000521002000F0FCF800200349088010BD8E
:100780004D6F6465203100002800002044697374B7
:10079000656E6365203D2025750000002A0000205D
:1007A0002D000020704708B54FF4A06000F046F817
:1007B00026208DF8000001208DF801008DF8020040
:1007C0008DF80300684600F001F808BD70B50021FF
:1007D00000230F22C47804B3154C246804F4E064A9
:1007E000C4F5E064210AC1F10403CA40447804FA64
:1007F00003F184781440214309010E4C0678A15579
:10080000047804F01F050124AC4005786D11AD009B
:1008100005F1E025C5F8004109E0047804F01F0562
:100820000124AC40044D0678761145F8264070BD91
:100830000CED00E000E400E080E100E0024901434B
:10084000024A1160704700000000FA050CED00E05C
:1008500010B5002000F001F810BD70B50646002468
:1008600015E004F1B001C8B200F06EFB002000F00A
:100870006BFB102000F068FB002504E0304600F020
:100880006AFB681CC5B2802DF8DB601CC4B2082C62
:10089000E7DB70BD10B50120FFF79EFCAE2000F035
:1008A00053FB202000F050FB102000F04DFBB02047
:1008B00000F04AFBC82000F047FB002000F044FB9A
:1008C000102000F041FB402000F03EFB812000F0B2
:1008D0003BFBFF2000F038FBA12000F035FBA620F9
:1008E00000F032FBA82000F02FFB3F2000F02CFB93
:1008F000A42000F029FBD32000F026FB002000F00C
:1009000023FBD52000F020FBF02000F01DFBD920B8
:1009100000F01AFB222000F017FBDA2000F014FB95
:10092000122000F011FBDB2000F00EFB202000F075
:100930000BFB8D2000F008FB142000F005FBAF201E
:1009400000F002FB10BD70B504460D4605F1B00184
:10095000C8B200F0F9FA102141EA141000F0F4FADC
:1009600004F00F0141F0010000F0EEFA70BD00004C
:100970002DE9F0470646894617469A464FF000088B
:1009800000240025BAF1010F03D0BAF1020F5ED1A5
:1009900025E020E0785D203800F0FF087E2E04DDA1
:1009A000002609F1010000F0FF0949463046FFF733
:1009B000CAFF002409E008EB4801264A02EB410186
:1009C000085D00F0C8FA601CC4B2062CF3DBB01D51
:1009D000C6B2681CC5B2785D0028DBD137E032E0D2
:1009E000785D203800F0FF08782E04DD002609F13C
:1009F000010000F0FF0949463046FFF7A4FF00243C
:100A000007E004EB0811144A505C00F0A4FA601CE3
:100A1000C4B2082CF5DB09F10100C1B23046FFF782
:100A200092FF002408E004EB081108310A4A505CE8
:100A300000F091FA601CC4B2082CF4DB06F1080047
:100A4000C6B2681CC5B2785D0028C9D100BF00BF1E
:100A5000BDE8F087B0120008D81400087047000005
:100A600029B1064AD2690243044BDA6104E0034A21
:100A7000D2698243014BDA617047000000100240E6
:100A800029B1064A92690243044B9A6104E0034A81
:100A900092698243014B9A61704700000010024046
:100AA00030B500210022002400232D4D6D6805F093
:100AB0000C0121B1042905D0082923D105E0294DD5
:100AC000056022E0274D05601FE0254D6D6805F4A7
:100AD0007012234D6D6805F48034022505EB9242B7
:100AE0001CB9214D554305600BE01D4D6D6805F4A3
:100AF00000351DB11C4D5543056002E0194D5543AD
:100B0000056002E0174D056000BF00BF144D6D6821
:100B100005F0F0010909154D6B5C0568DD40456085
:100B20000F4D6D6805F4E061090A104D6B5C456876
:100B3000DD4085600A4D6D6805F46051C90A0B4DB2
:100B40006B5C4568DD40C560054D6D6805F440414E
:100B5000890B074D6B5CC568B5FBF3F5056130BDCE
:100B60000010024000127A0000093D00140000202D
:100B70002400002008B501210820FFF781FF4FF471
:100B80008050ADF8000010208DF8030003208DF890
:100B9000020069460A48FFF72BFB4FF40050ADF8FE
:100BA000000069460648FFF723FB4FF480510448D4
:100BB000FFF7ADFB4FF400510148FFF7A8FB08BD5C
:100BC000000C0140704710B500F002F810BD0000A5
:100BD0000CB50020019000903348006840F480304C
:100BE0003149086000BF3048006800F400300090D0
:100BF0000198401C0190009818B90198B0F5A06FB9
:100C0000F1D12948006800F4003010B101200090B3
:100C100001E0002000900098012843D1234800689B
:100C200040F01000214908600846006820F00300E9
:100C300008600846006840F0020008601A484068F2
:100C4000194948600846406848600846406840F4D2
:100C5000806048600846406820F47C104860084680
:100C6000406840F4E81048600846006840F0807032
:100C7000086000BF0C48006800F000700028F9D040
:100C80000948406820F0030007494860084640686A
:100C900040F00200486000BF0348406800F00C00CC
:100CA0000828F9D10CBD00000010024000200240CD
:100CB0007047000030B5164800684FF47A72B0FBF8
:100CC000F2F1B1F1807F01D301201DE021F07F40DE
:100CD000401E4FF0E022506150170F22002807DA23
:100CE00013071D0E0B4B00F00F04241F1D5503E0CE
:100CF00013071C0E084B1C5400BF00204FF0E022CD
:100D0000906107201061002008B100BFFEE730BDF0
:100D10000000002018ED00E000E400E010B51348EA
:100D2000006840F001001149086008464068104919
:100D300008400E494860084600680E4908400B49C3
:100D400008600846006820F4802008600846406873
:100D500020F4FE0048604FF41F008860FFF733FF67
:100D60004FF000600449086010BD00000010024010
:100D70000000FFF8FFFFF6FE08ED00E021B18289D8
:100D800042F40052828104E082894DF6FF731A40DA
:100D90008281704700B585B001210420FFF770FE05
:100DA00001214804FFF75CFE0420ADF81000182074
:100DB0008DF8130003208DF8120004A91648FFF7E0
:100DC00017FA0820ADF8100004208DF8130004A9CC
:100DD0001148FFF70DFA4FF4E13000900020ADF814
:100DE0000400ADF80600ADF80800ADF80C000C20CA
:100DF000ADF80A006946094800F038F8FFF7D3FC5F
:100E0000012240F22551054800F00AF8012103486B
:100E1000FFF7B4FF05B000BD0008014000440040EA
:100E2000F0B50346002400260025002040F66A178E
:100E3000B94200D100BF1846C1F3421401F01F06A9
:100E4000012707FA06F5012C01D10C3004E0022C31
:100E500001D1103000E014301AB107682F43076049
:100E600002E00768AF430760F0BD00002DE9F047DE
:100E700086B005460E460024A24600BFA1460027C4
:100E8000B08900B100BF2F462C8A4CF6FF70044099
:100E9000F08804432C82AC894EF6F3100440B088ED
:100EA00031890843718908430443AC81AC8A4FF609
:100EB000FF400440B0890443AC8201A8FFF7F0FD75
:100EC0001F48874202D1DDF810A001E0DDF80CA038
:100ED000A88900F4004040B10AEBCA0000EB0A10F8
:100EE00031684900B0FBF1F807E00AEBCA0000EBFB
:100EF0000A1031688900B0FBF1F86420B8FBF0F00B
:100F000004012009642101FB1089A88900F4004034
:100F100040B1322000EBC900B0FBF1F000F0070057
:100F2000044308E0322000EB09106421B0FBF1F02B
:100F300000F00F0004432C8106B0BDE8F0870000EC
:100F40000038014000BFFEE710B5044621460020EE
:100F5000FFF7E3F910BD10B5044621464020FFF726
:100F6000DCF910BD0FB4084B10B504A902AA039810
:100F700000F01CF8044602A9002000F0C1F8204649
:100F800010BC5DF814FB00000111000802E008C865
:100F9000121F08C1002AFAD170477047002001E0F3
:100FA00001C1121F002AFBD1704700002DE9FF4F3D
:100FB00089B09B460446002506E025280BD05A46FA
:100FC0000B999047641C6D1C20780028F5D10DB05A
:100FD0002846BDE8F08F0027B8460122474900E0C7
:100FE000074314F8013F203B02FA03F00842F7D10F
:100FF00020782E2819D114F8010F47F004072A2869
:101000000ED06FF02F022078A0F1300109290CD802
:1010100008EB880102EB410100EB0108641CF2E7D8
:101020000A98641C50F8048B0A9020780028CED0CF
:10103000642808D0692806D075281ED05A460B9916
:1010400090476D1C58E00A994FF00A0901C90A91AE
:10105000002802DA40422D2102E0390504D52B2177
:101060008DF82010012103E0F90704D02021F7E7D3
:101070008A4608AE0DE00021FAE70A994FF00A0906
:1010800001C90A91F7E74946FFF76EF8303106F8D3
:10109000011D0028F7D1ADEB060000F1200978070B
:1010A00001D44FF00108C84502DDA8EB090000E0BB
:1010B00000208046002706E008A85A46C05D0B992C
:1010C00090476D1C7F1C5745F6DB04E030205A46E4
:1010D0000B9990476D1CB8F10001A8F10108F5DCEF
:1010E00005E016F8010B5A460B9990476D1CB9F1B3
:1010F0000001A9F10109F4DC641C65E7092801007D
:101100000A68531C0B6010707047000008B501217D
:101110000420FFF7B5FC3020ADF8000003208DF867
:10112000020014208DF8030069460348FFF760F8B9
:1011300000F04EF808BD000000080140002001E06A
:10114000411CC8B20A28FBDB7047000070B504469A
:10115000002520E004F0800018B120200F4908602D
:1011600003E020200D49091D0860FFF7E7FF10206C
:101170000A490860FFF7E2FF10200849091D0860CE
:10118000072D02D12020091F08606006040EFFF71A
:10119000D5FF681CC5B2082DDCDB70BD100801400E
:1011A00010B520200949086010200860FFF7C6FF2D
:1011B00020200649091D0860FFF7C0FF10200349E1
:1011C000091D0860FFF7BAFF10BD000010080140BC
:1011D00010B52020054908601020091F0860FFF79E
:1011E000ADFF20200149091F086010BD140801400F
:1011F00010B520200C490860FFF7A0FF10200A4915
:101200000860FFF79BFF08480838006800F02000DE
:1012100008B1012400E0002410200349091D0860E2
:10122000FFF78CFF204610BD10080140FFF7B2FD0C
:10123000FFF76CFFFFF72EFBFFF79CFCFFF73AFD73
:10124000FF20FFF70AFB0220FEF7C6FF0020FFF792
:1012500004FB28E0FFF782F8102803D11248008829
:1012600011490880FFF77AF80C281CD1FFF772F9B2
:101270004FF480500D4908606420FEF7A1FF4FF441
:1012800080500A49091F08600320FEF7A5FF4FF4AC
:101290000050064908606420FEF792FF4FF40050AA
:1012A0000249091F0860D5E728000020140C0140FE
:1012B0000000000000000000002F000000000700F8
:1012C000070000147F147F1400242A7F2A12006272
:1012D000640813230036495522500000050300001E
:1012E00000001C224100000041221C000014083EA6
:1012F00008140008083E0808000000A0600000086C
:1013000008080808000060600000002010080402BF
:10131000003E5149453E0000427F4000004261517D
:101320004946002141454B31001814127F10002717
:1013300045454539003C4A494930000171090503DA
:1013400000364949493600064949291E000036360B
:10135000000000005636000000081422410000146E
:10136000141414140000412214080002015109064B
:1013700000324959513E007C1211127C007F4949CC
:101380004936003E41414122007F4141221C007FFD
:1013900049494941007F09090901003E4149497A0B
:1013A000007F0808087F0000417F41000020404185
:1013B0003F01007F08142241007F40404040007FF1
:1013C000020C027F007F0408107F003E4141413E35
:1013D000007F09090906003E4151215E007F09197D
:1013E00029460046494949310001017F0101003F7A
:1013F0004040403F001F2040201F003F4038403FFA
:10140000006314081463000708700807006151495D
:10141000454300007F41410000552A552A550000F0
:1014200041417F000004020102040040404040406E
:10143000000001020400002054545478007F484406
:10144000443800384444442000384444487F00383D
:101450005454541800087E0901020018A4A4A47C66
:10146000007F080404780000447D40000040808430
:101470007D00007F102844000000417F4000007C78
:1014800004180478007C0804047800384444443884
:1014900000FC242424180018242418FC007C0804D0
:1014A000040800485454542000043F444020003CA9
:1014B0004040207C001C2040201C003C4030403C30
:1014C000004428102844001CA0A0A07C00446454C0
:1014D0004C44141414141414000000000000000004
:1014E0000000000000000000000000F80000000004
:1014F000000000333000000000100C06100C060045
:10150000000000000000000040C07840C0784000AB
:10151000043F04043F040400007088FC083000000D
:10152000001820FF211E0000F008F000E018000065
:1015300000211C031E211E0000F00888700000001E
:101540001E2123241927211010160E000000000070
:101550000000000000000000000000E0180402008D
:10156000000000071820400000020418E0000000FE
:101570000040201807000000404080F080404000FC
:101580000202010F01020200000000F00000000052
:101590000101011F01010100000000000000000026
:1015A00080B070000000000000000000000000009B
:1015B0000001010101010101000000000000000024
:1015C00000303000000000000000000080601804BF
:1015D000006018060100000000E010080810E0009C
:1015E000000F102020100F00001010F80000000065
:1015F0000020203F202000000070080808887000AC
:10160000003028242221300000300888884830002B
:101610000018202020110E000000C02010F800004B
:1016200000070424243F240000F8088888080800E4
:101630000019212020110E0000E0108888180000F9
:10164000000F112020110E0000380808C8380800CB
:101650000000003F0000000000708808088870004B
:10166000001C222121221C0000E010080810E000CC
:101670000000312222110F00000000C0C000000055
:10168000000000303000000000000080000000007A
:101690000000806000000000000080402010080072
:1016A000000102040810200040404040404040003B
:1016B0000404040404040400000810204080000016
:1016C0000020100804020100007048080808F0001B
:1016D0000000003036010000C030C828E810E000EB
:1016E0000718272423140B000000C038E000000076
:1016F000203C23020227382008F8888888700000E0
:10170000203F202020110E00C030080808083800B3
:10171000071820202010080008F808080810E0002A
:10172000203F202020100F0008F88888E8081000CB
:10173000203F20202320180008F88888E80810009F
:10174000203F200003000000C030080808380000D7
:1017500007182020221E020008F808000008F808D8
:10176000203F210101213F20000808F8080800005F
:101770000020203F2020000000000808F808080092
:10178000C08080807F00000008F888C0281808000A
:10179000203F20012638200008F808000000000043
:1017A000203F20202020300008F8F800F8F808003A
:1017B000203F003F003F200008F830C00008F80834
:1017C000203F200007183F00E01008080810E00044
:1017D0000F10202020100F0008F808080808F0005B
:1017E000203F210101010000E01008080810E0007E
:1017F0000F18242438504F0008F888888888700013
:10180000203F2000030C30200070880808083800B2
:101810000038202121221C00180808F808081800A8
:101820000000203F2000000008F808000008F80829
:10183000001F202020201F000878880000C83808DA
:10184000000007380E010000F80800F80008F80052
:10185000033C0700073C03000818688080681808EC
:1018600020302C03032C30200838C800C83808006A
:101870000000203F2000000010080808C8380800B9
:101880002038262120201800000000FE020202005D
:101890000000007F40404000000C30C0000000000D
:1018A000000000010638C00000020202FE00000035
:1018B000004040407F0000000000040202020400DB
:1018C0000000000000000000000000000000000018
:1018D0008080808080808080000202040000000000
:1018E00000000000000000000000808080800000F8
:1018F0000019242222223F2008F8008080000000E6
:10190000003F112020110E000000008080800000A8
:10191000000E112020201100000000808088F800B7
:10192000000E112020103F200000808080800000E9
:10193000001F222222221300008080F0888888184D
:101940000020203F20200000000080808080800058
:10195000006B94949493600008F8008080800000ED
:10196000203F210000203F200080989800000000C8
:101970000020203F202000000000008098980000F8
:1019800000C08080807F000008F800008080800018
:10199000203F24022D302000000808F8000000003D
:1019A0000020203F202000008080808080808000F8
:1019B000203F20003F20003F80800080808000008A
:1019C000203F210000203F20000080808080000018
:1019D000001F202020201F00808000808000000049
:1019E00080FFA12020110E00000000808080800078
:1019F000000E112020A0FF80808080008080800069
:101A000020203F2120000100000080808080800095
:101A10000033242424241900008080E0808000000A
:101A20000000001F20200000808000000080800057
:101A3000001F202020103F208080800000808080B8
:101A400000010E3008060100808000800080808048
:101A50000F300C030C300F0000808000808080006D
:101A60000020312E0E312000808080000080808098
:101A700080818E7018060100008080808080800048
:101A80000021302C2221300000000000807C020266
:101A900000000000003F404000000000FF00000088
:101AA00000000000FF0000000002027C8000000037
:101AB0000040403F00000000000601010202040453
:101AC0000000000000000000E81A000800000020EC
:101AD000340000008C0F00081C1B0008340000209C
:101AE000040400009C0F000800A24A04000000004B
:101AF00000000000010203040607080900000000BE
:101B0000010203040102030406070809020406088F
:0C1B1000000000000000000000000000C9
:0400000508000131BD
:00000001FF
