:020000040800F2
:1000000008040020450100083B04000873020008B2
:10001000390400088D010008CF0500080000000029
:10002000000000000000000000000000AD04000817
:100030008F010008000000003D040008650500086D
:100040005F0100085F0100085F0100085F01000810
:100050005F0100085F0100085F0100085F01000800
:100060005F0100085F0100085F0100085F010008F0
:100070005F0100085F0100085F0100085F010008E0
:100080005F0100085F0100085F0100085F010008D0
:100090005F0100085F0100085F0100085F010008C0
:1000A0005F0100085F0100085F0100085F010008B0
:1000B0005F0100085F0100085F0100085F010008A0
:1000C0005F0100085F0100085F0100085F01000890
:1000D0005F0100085F0100085F0100085F01000880
:1000E0005F0100085F0100085F0100085F01000870
:1000F0005F0100085F0100085F0100085F01000860
:100100005F0100085F0100085F0100085F0100084F
:100110005F0100085F0100085F0100085F0100083F
:100120005F0100085F0100085F0100085F0100082F
:10013000DFF80CD000F018F800480047F10500087F
:10014000080400200648804706480047FEE7FEE70F
:10015000FEE7FEE7FEE7FEE7FEE7FEE7FEE7FEE777
:100160006905000831010008064C074D06E0E0680B
:1001700040F0010394E8070098471034AC42F6D3EE
:10018000FFF7DAFF3006000850060008FEE7704768
:1001900001B503480099016001680029FCD108BD40
:1001A0000000002030B5024600244FF47A7503E0C9
:1001B0002846FFF7EDFF521E9442F9D330BD2DE9DA
:1001C000F0410022CC7804F00F03E40601D58C78CE
:1001D00023430C784FF00F0714F0FF0F4FF0010C82
:1001E0001CD005680CFA02F40E882640A64211D1F4
:1001F000960007FA06F825EA080503FA06F848EA21
:100200000505CE78282E02D0482E02D002E04461A7
:1002100000E00461521C082AE4D305600A88FF2A22
:100220001ED94568002202F108060CFA06F40E8871
:100230002640A64210D1960007FA06F825EA0805DE
:1002400003FA06F848EA0505CE78282E00D1446165
:10025000CE78482E00D10461521C082AE3D34560B1
:10026000BDE8F081806880B27047416170470161EC
:100270007047FEE770B5102400F0BAF85B4D2846D1
:10028000FFF7F0FF00F47F40B0F5706F6FD00A20E9
:10029000FFF77EFF21012846FFF7E9FF4FF4606179
:1002A0002846FFF7E2FF2846FFF7DCFF00F47F4017
:1002B000B0F5885F09D0B0F5045F08D0B0F5824F83
:1002C00007D0B0F5014F07D105E0012404E0022476
:1002D00002E0032400E00C240520FFF759FF4FF44F
:1002E00000712846FFF7C3FF4FF450612846FFF71F
:1002F000BCFF2846FFF7B6FF00F47F40B0F5905FE3
:1003000009D0B0F5085F08D0B0F5844F07D0B0F53C
:10031000024F07D105E0042404E0052402E006248E
:1003200000E00D240520FFF733FF4FF480612846DD
:10033000FFF79DFF4FF430612846FFF796FF2846F0
:10034000FFF790FF00F47F40B0F5A05F09D0B0F553
:10035000105F08D0B0F5884F07D0B0F5044F08D132
:1003600006E0072405E0082403E0092401E03BE05F
:100370000E240520FFF70CFF4FF400663146284697
:10038000FFF775FF4FF4E0612846FFF76EFF284640
:10039000FFF768FF00F47F40B0F5C05F09D0B0F50B
:1003A000205F08D0B0F5904F07D0B0F5084F07D1C7
:1003B00005E00A2404E0002402E00B2400E00F24FE
:1003C0000520FFF7E5FE2846FFF74CFF00F47F40CD
:1003D000B042F8D10A20FFF7DBFE2846FFF742FFC4
:1003E00000F47F40B042EED1204670BD00100140C5
:1003F00038B50121102000F023F810208DF80300FB
:100400004FF47060ADF8000003248DF80240094DF0
:1004100069462846FFF7D3FE28218DF803104FF4D4
:100420007041ADF800108DF8024069462846FFF78C
:10043000C6FE38BD00100140FEE77047704700005F
:10044000054A002903D09169014391617047916980
:10045000814391617047000000100240F8B501210E
:100460000820FFF7EDFF4FF48044ADF8004014265C
:100470008DF8036003208DF802000B4F6946384663
:10048000FFF79DFE6500ADF800508DF803606946EA
:100490003846FFF794FE21463846FFF7E8FE294626
:1004A0003846FFF7E4FEF8BD000C0140704700F04D
:1004B00001B800000CB500220192009227480168A3
:1004C00041F4803101604FF4A063016801F4003110
:1004D00000910199491C0191009911B90199994222
:1004E000F3D10168890302D50121009100E0009257
:1004F0000099012930D11A490A6842F010020A60B5
:100500000A6822F003020A600A6842F002020A60E6
:100510004168416041684160416841F480614160E7
:10052000416821F47C114160416841F4E811416067
:10053000016841F08071016001688901FCD5416862
:1005400021F003014160416841F0020141604168CE
:10055000C1F381010229FAD10CBD00000010024054
:100560000020024000F028B810B50F48016841F0A3
:100570000101016041680D4A1140416001680C4A67
:1005800011400160016821F480210160416821F47B
:10059000FE0141604FF41F018160FFF788FF0549AC
:1005A0004FF00060086010BD001002400000FFF82E
:1005B000FFFFF6FE08ED00E003480168002902D0C5
:1005C0000168491E01607047000000207047FEE787
:1005D00002E008C8121F08C1002AFAD1704770470C
:1005E000002001E001C1121F002AFBD1704700006A
:1005F00070B5FFF7EBFFFFF731FFFFF73BFEFFF7AB
:1006000039FE0128F9D1094C85032560FFF7CAFDA1
:10061000261F35600320FFF7C5FD6D0025604FF4F0
:10062000FA70FFF7B5FD3560002070BD140C014075
:10063000500600080000002004000000D00500085B
:10064000540600080400002004040000E00500082F
:0406500000000000A6
:0400000508000131BD
:00000001FF
