:020000040800F2
:10000000D006002089010008850D0008CF0A0008ED
:10001000C90C0008C5020008B31E0008000000005B
:10002000000000000000000000000000C1160008F1
:10003000B10300080000000031150008D5170008C2
:10004000A3010008A3010008A3010008A301000800
:10005000A3010008A3010008A3010008A3010008F0
:10006000A3010008A3010008A3010008A3010008E0
:10007000A3010008A3010008A3010008A3010008D0
:10008000A3010008A3010008A3010008A3010008C0
:10009000A3010008A3010008A3010008A3010008B0
:1000A000A3010008A3010008A3010008A3010008A0
:1000B000A3010008E9180008A3010008A301000833
:1000C000A3010008A3010008A3010008A301000880
:1000D000A3010008411C0008A3010008A3010008B7
:1000E000A3010008A3010008A301000800F002F822
:1000F00000F03AF80AA090E8000C82448344AAF188
:100100000107DA4501D100F02FF8AFF2090EBAE885
:100110000F0013F0010F18BFFB1A43F0010318473B
:10012000DC4C0000FC4C0000103A24BF78C878C1B9
:10013000FAD8520724BF30C830C144BF04680C60ED
:10014000704700000023002400250026103A28BF35
:1001500078C1FBD8520728BF30C148BF0B60704739
:100160001FB51FBD10B510BD00F033F81146FFF7E5
:10017000F7FF02F073F800F051F803B4FFF7F2FF55
:1001800003BC01F098FE0000094880470948004779
:10019000FEE7FEE7FEE7FEE7FEE7FEE7FEE7FEE737
:1001A000FEE7FEE704480549054A064B7047000094
:1001B000D9170008ED000008D0000020D00600206C
:1001C000D0020020D002002070477047704770476F
:1001D0007047754600F02CF8AE4605006946534658
:1001E00020F00700854618B020B5FFF7DBFFBDE81B
:1001F00020404FF000064FF000074FF000084FF08E
:10020000000B21F00701AC46ACE8C009ACE8C0091E
:10021000ACE8C009ACE8C0098D46704710B504468B
:10022000AFF300802046BDE81040FFF7A6BF0000F6
:10023000004870477000002008B50121082001F037
:10024000C5F94FF40070ADF8000010208DF80300E0
:1002500003208DF802006946044800F057FB4FF474
:100260000071024800F02FFC08BD0000000C0140A6
:1002700010B502F009F812480078032803D101F004
:1002800059F900F06BFD0E480078012804D101F007
:1002900061FE00F063FD10BD09480078022804D11A
:1002A00001F06CFF00F0F8F9F5E70548007820B997
:1002B00000F00CFD00F052FDEDE700BFEBE70000A1
:1002C0001500002000BFFEE710B53348C078322883
:1002D00006DA3148C07818B100203049087009E0CA
:1002E0002D48C0786E2805DD2B48C07810B101205C
:1002F0002A4908702948007848B92748007930B958
:100300002548407918B90320254908701CE0234886
:100310000078012809D12048007930B91E48407979
:1003200018B904201E4908700EE01B48C078002848
:100330000ADD19480079002806DD174840790028B1
:1003400002DD022016490870134840790C280ADCA7
:1003500011484079032806DB00201249086001207B
:100360000F49087002E001200E49086002210E4882
:1003700000F0A0FB10B901200949087001210A48CA
:1003800000F098FB18B900200849087002E001202D
:100390000649087010BD000044000020370000200E
:1003A00014000020A0812142000C014032000020F6
:1003B000704700002DE9FF5F86B014461D464FF0E0
:1003C000010A00200390049005904FF001090026D7
:1003D00000BF8346002213462046294602F03CF91E
:1003E00009D285F00040CDE900402046019902F095
:1003F000BFF8064604E02046294602F0B9F8064652
:10040000304602F012F922462B46CDE9000102F0F7
:100410005DFA074688460022544B3846414602F0B2
:1004200057F9CDE9000102F0D3F8834607E009EB64
:1004300089004FEA40090AF1010000F0FF0A0A2092
:1004400096FBF0F090FBF9F00028F0D142F210702A
:1004500096FBF0F00A2190FBF1F201FB1200C0B212
:100460008DF80C004FF47A7096FBF0F090FBF1F2EF
:1004700001FB1200C0B28DF80D00642096FBF0F075
:1004800090FBF1F201FB1200C0B28DF80E000A20C1
:1004900096FBF0F090FBF1F201FB1200C0B28DF878
:1004A0000F000A2096FBF0F100FB1160C0B28DF83E
:1004B00010002E208DF811004FF47A70BBFBF0F085
:1004C0000A21B0FBF1F201FB12008DF8120064204A
:1004D000BBFBF0F0B0FBF1F201FB12008DF8130052
:1004E0000A20BBFBF0F0B0FBF1F201FB12008DF82B
:1004F00014000A20BBFBF0F100FB11B08DF81500D1
:1005000000211498801D03AA1154894608E003A80D
:1005100010F80900303003A901F8090009F10109B8
:10052000B9F10A0FF3DB002213462046294602F0F8
:1005300093F808D20AF1010000F0FF0A2D20CAF159
:10054000050103AA50542E208DF8110000211498A3
:10055000801D03AA1154CAF1050003A94218DDE960
:10056000061000F0B7FD0AB0BDE8F09F0088C34058
:100570002DE9FC4107460E4614469846002500200A
:1005800000900190F006060E42F21070B4FBF0F0FD
:100590000A21B0FBF1F201FB12008DF800004FF4CC
:1005A0007A70B4FBF0F0B0FBF1F201FB12008DF8B1
:1005B00001006420B4FBF0F0B0FBF1F201FB12008B
:1005C0008DF802000A20B4FBF0F0B0FBF1F201FB61
:1005D00012008DF803000A20B4FBF0F100FB11407B
:1005E0008DF8040000BF07E01DF805003030C0B2F0
:1005F0000DF80500681CC5B2052DF5DBC8F1050036
:10060000694642183946304600F064FDBDE8FC8179
:1006100010B51E48007802280CD11D48408881B2D0
:100620001C4801F0B6FA1A48008881B2194801F056
:10063000B2FA29E01548007804280AD14FF4AF61D6
:10064000144801F0A6FA4FF4AF61124801F0A3FA82
:100650001AE00E48007803280AD140F2DC510D4818
:1006600001F097FA40F2DC510A4801F094FA0BE0ED
:1006700006480078012807D10021064801F089FAD0
:100680000021044801F087FA10BD0000140000208A
:1006900016000020002C01402DE9F04100F090FAF6
:1006A00006287AD2DFE800F079037AF4F2F18F4875
:1006B0000078012836D18E480078012804D002281D
:1006C00011D003282DD11DE08A48006802F0F4F90A
:1006D0000646894A894B01F097FE044601F062FE06
:1006E000844908601DE08348006802F0E5F9064689
:1006F0000022834B01F088FE044601F053FE7D4941
:1007000008600EE07B48006802F0D6F90646002239
:100710007C4B01F079FE044601F044FE7549086007
:1007200000BF00BF71480078022836D170480078B9
:10073000012804D0022811D003282DD11DE07248D1
:10074000006802F0B9F906466B4A6C4B01F05CFE9A
:10075000044601F027FE6C4908601DE06A48006805
:1007600002F0AAF906460022654B01F04DFE044650
:1007700001F018FE644908600EE06348006802F06A
:100780009BF9064600225F4B01F03EFE044601F055
:1007900009FE5D49086000BF00BFA4E0534800782F
:1007A000012836D152480078012804D0022811D0FF
:1007B00003282DD11DE04F48006802F07DF9064660
:1007C0004D4A4E4B02F08EF8044601F0EBFD4949CC
:1007D00008601DE04748006802F06EF906460022F6
:1007E000474B02F07FF8044601F0DCFD4149086008
:1007F0000EE04048006802F05FF906460022414BD7
:1008000002F070F8044601F0CDFD3A49086000BFDF
:1008100000BF36480078022836D1354800780128D4
:1008200004D0022811D003282DD11DE036480068DD
:1008300002F042F90646304A304B02F053F80446C3
:1008400001F0B0FD304908601DE02F48006802F05B
:1008500033F9064600222A4B02F044F8044601F020
:10086000A1FD294908600EE02748006802F024F93C
:1008700006460022234B02F035F8044601F092FDB3
:100880002149086000BF00BF2DE01DE00EE0FFE73A
:1008900016480078401C1549087008460078022860
:1008A00001DD0120087000F0A7FA1CE00F48007875
:1008B000401E0E49087008460078012801DA02201F
:1008C000087000F099FA0EE009480078401C0849C9
:1008D000087000F091FA06480078032802DD012034
:1008E0000349087000BF00BFBDE8F0812A00002066
:1008F0002B0000201C0000209A9999999999B93FE2
:100900000000E03F0000F03F200000202DE9F04112
:10091000024600250026002000230024002791F82D
:1009200003C00CF00F0591F803C00CF0100CBCF1E3
:10093000000F03D091F802C04CEA050591F800C001
:10094000BCF1000F31D0146800202BE04FF0010CF7
:100950000CFA00F3B1F800C00CEA03069E4220D165
:1009600083004FF00F0C0CFA03F7BC4305FA03FCAD
:100970004CEA040491F803C0BCF1280F06D14FF0F3
:10098000010C0CFA00FCC2F814C00AE091F803C094
:10099000BCF1480F05D14FF0010C0CFA00FCC2F875
:1009A00010C0401C0828D1D31460B1F800C0BCF1BD
:1009B000FF0F34DD546800202EE000F1080C4FF0EA
:1009C000010808FA0CF3B1F800C00CEA03069E42D5
:1009D00021D183004FF00F0C0CFA03F7BC4305FA4A
:1009E00003FC4CEA040491F803C0BCF1280F05D1C4
:1009F00000F1080C08FA0CF8C2F8148091F803C052
:100A0000BCF1480F07D100F1080C4FF0010808FABB
:100A10000CF8C2F81080401C0828CED35460BDE802
:100A2000F0810000F0B50A460023002400210025D3
:100A300000F00046B6F1004F02D11D4EF16901E011
:100A40001B4E7168C0F3034583B200F44016B6F53F
:100A5000401F08D121F07061154E766826F070664F
:100A6000134F7E6012E000F48016B6F5801F06D1A9
:100A7000032606FA05F4A14341F0706106E0460D35
:100A8000360103FA06F6B14341F0706122B1460D1A
:100A9000360103FA06F6314300F00046B6F1004F86
:100AA00002D1034EF16101E0014E7160F0BD000022
:100AB000000001400246002093680B400BB101206A
:100AC00000E000207047416170470161704700BF3E
:100AD000FEE7000008B5142202211E2000F068FB8A
:100AE00015220221322000F063FB1622022146204B
:100AF00000F05EFB172202215A2000F059FB9620DD
:100B000001F016FB0121032001F0D8F94FF4FA702F
:100B100001F00EFB4FF4FA7001F00AFB00F06CF9E3
:100B2000074807236E2200210090084600F090F944
:100B30004FF4FA7001F0FCFA00F05EF908BD000015
:100B40008747000808B50121042000F03FFDFE2082
:100B5000ADF8000048208DF8030069460848FFF70B
:100B6000D5FE0121082000F031FD0320ADF8000082
:100B700048208DF8030069460248FFF7C7FE08BD0C
:100B800000080140000C014010B508210948FFF79A
:100B900091FF68B90A2001F0CBFA08210548FFF758
:100BA00089FF28B904480068C0430449C1F8A0017E
:100BB00010BD000000080140A081214200802142B8
:100BC00010B520212348FFF775FF40B900BF202151
:100BD0002048FFF76FFF0028F9D0012010BD022147
:100BE0001C48FFF767FF40B900BF02211948FFF713
:100BF00061FF0028F9D00220F0E704211548FFF733
:100C000059FF40B900BF04211248FFF753FF0028E5
:100C1000F9D00320E2E710210E48FFF74BFF40B95F
:100C200000BF10210B48FFF745FF0028F9D0042032
:100C3000D4E708210748FFF73DFF40B900BF08216E
:100C40000448FFF737FF0028F9D00520C6E7002049
:100C5000C4E700000008014008B50121082000F0A9
:100C6000B5FC4FF48850ADF8000010208DF803005B
:100C700003208DF8020069461148FFF747FE4FF444
:100C800080510F48FFF721FF4FF480710C48FFF7A8
:100C90001CFF0121042000F099FC2020ADF8000089
:100CA00010208DF8030003208DF8020069460548E6
:100CB000FFF72CFE20210348FFF707FF08BD0000C7
:100CC000000C01400008014000BFFEE710B51C22E7
:100CD0000021084600F06CFA1D220021102000F0CF
:100CE00067FA1E220021202000F062FA1F22002154
:100CF000302000F05DFA10A20021462000F0BCFA7E
:100D00000E4800781A30C2B200215A2000F050FA82
:100D10000B480078012805D10AA206213C2000F0EA
:100D2000ABFA07E00648007820B909A206213C206A
:100D300000F0A2FA10BD00003A0000002C000020D4
:100D400032000020424545505F4F4E200000000019
:100D5000424545505F4F46460000000010B5FFF782
:100D60002FFF05280AD106480078401C0449087066
:100D700008460078012801DD0020087010BD000041
:100D80002C0000207047000070B5002100230F22C6
:100D9000C47804B3154C246804F4E064C4F5E0643A
:100DA000210AC1F10403CA40447804FA03F18478AB
:100DB0001440214309010E4C0678A155047804F033
:100DC0001F050124AC4005786D11AD0005F1E0254B
:100DD000C5F8004109E0047804F01F050124AC4087
:100DE000044D0678761145F8264070BD0CED00E004
:100DF00000E400E080E100E070B5002419E004F1B7
:100E0000B001C8B2002100F083FA0021084600F0CA
:100E10007FFA0021102000F07BFA002505E0012177
:100E2000002000F075FA681CC5B2802DF7DB601C4D
:100E3000C4B2082CE3DB70BD07E040F2375100BFBD
:100E40000A1EA1F10101FBD1401E0028F5D1704717
:100E50002DE9F05F06460F4690461C46DDF828A0B7
:100E60004FF0000BE11704EB5171C910A4EBC10165
:100E700031B92046E11704EB5171C1F3C70506E013
:100E80002046E11704EB5171C910491CCDB23D4613
:100E900015E02946304600F061F9B1460BE05946AD
:100EA0000BF1010B1AF80100012100F001FA09F120
:100EB000010000F0FF09C145F1DB681CC5B2A54285
:100EC000E7DBBDE8F09F70B50646002415E004F1AD
:100ED000B001C8B200F048FA012000F045FA102035
:100EE00000F042FA002504E0304600F069FA681C80
:100EF000C5B2802DF8DB601CC4B2082CE7DB70BDE6
:100F000008B50121084600F061FB01214748FFF7C1
:100F100089FD0121082000F059FBF020ADF8000008
:100F200003208DF8020010208DF803006946404828
:100F3000FFF7ECFC69463E48FFF7E8FC80213C489F
:100F4000FFF7C3FD20213A48FFF7BDFD3220FFF730
:100F500073FF20213648FFF7B8FD0021AE2000F0D6
:100F6000A7F90021D52000F0A3F90021802000F08E
:100F70009FF90021A82000F09BF900213F2000F0FC
:100F800097F90021D32000F093F90021084600F0E2
:100F90008FF90021402000F08BF900218D2000F016
:100FA00087F90021142000F083F90021202000F0AF
:100FB0007FF90021022000F07BF90021A12000F040
:100FC00077F90021C82000F073F90021DA2000F041
:100FD0006FF90021122000F06BF90021812000F050
:100FE00067F90021EF2000F063F90021D92000F01B
:100FF0005FF90021F12000F05BF90021DB2000F017
:1010000057F90021402000F053F90021A42000F0FE
:101010004FF90021A62000F04BF90021AF2000F08D
:1010200047F90020FFF74FFF08BD00000002300025
:10103000000C0140F8B506460F461446002000900B
:1010400002250DE00A2094FBF0F100FB1140303046
:10105000C0B20DF805000A2094FBF0F0C4B26D1E7A
:10106000002DEFDA6A463946304600F001F8F8BD47
:101070002DE9F0470446884615464FF00009002642
:1010800000274146204600F069F81CE0E85D203862
:1010900000F0FF097E2C04DD002408F1010000F0BF
:1010A000FF08002609E009EB4901094A02EB41016A
:1010B000885D00F085F9701CC6B2062EF3DBA01D1A
:1010C000C4B2781CC7B2E85D0028DFD1BDE8F08764
:1010D000BE2E00082DE9F04706460F469046002533
:1010E0000024A14631E018F809002038C5B2782E56
:1010F00002DD0026781CC7B23946304600F02EF8D3
:10110000002407E004EB0511134A505C00F058F985
:10111000601CC4B2082CF5DB781CC1B2304600F06C
:101120001DF8002408E004EB051108310A4A505C60
:1011300000F046F9601CC4B2082CF4DB06F108008C
:10114000C6B209F1010000F0FF0918F809000028F3
:10115000C9D1BDE8F0870000D731000870B504465A
:101160000D4605F1B001C8B200F0FEF8102141EAC9
:10117000141000F0F9F804F00F0000F0F5F870BD5D
:1011800070B504460D4605F1B001C8B2002100F06B
:10119000BFF8102141EA1410002100F0B9F804F062
:1011A0000F0141F00100002100F0B2F870BD000015
:1011B0002DE9F04107460E46154631463846FFF701
:1011C000DFFF002408E0104A02EB8511085D0121D1
:1011D00000F09EF8601CC4B2102CF4DB701CC1B28D
:1011E0003846FFF7CDFF00240AE06900491C064A93
:1011F00002EB4111085D012100F08AF8601CC4B2C5
:10120000102CF2DBBDE8F081C73B00082DE9F0416E
:1012100007460E469046A8F12000C5B27F2F02DD9A
:101220000027B01CC6B231463846FFF7A9FF00249C
:1012300008E004EB05110F4A505C012100F068F84A
:10124000601CC4B2082CF4DB701CC1B23846FFF736
:1012500097FF002409E004EB05110831054A505CB2
:10126000012100F055F8601CC4B2082CF3DBBDE886
:10127000F0810000D73100082DE9F04104460F4607
:10128000154600260EE0AA5D39462046FFF7BEFF50
:1012900004F10800C4B2782C02DD0024B81CC7B2E7
:1012A000701CC6B2A85D0028EDD1BDE8F081000039
:1012B00070B504460E4626B110211448FFF705FC10
:1012C00003E010211148FFF7FEFB002517E0802105
:1012D0000E48FFF7F8FB04F0800020B140210B48D6
:1012E000FFF7F3FB03E040210848FFF7ECFB802108
:1012F0000648FFF7EAFB6006040E681CC5B2082D1D
:10130000E5DB10210148FFF7E0FB70BD000C014058
:1013100070B504460E4626B110211248FFF7D5FBE2
:1013200003E010210F48FFF7CEFB002517E08021D6
:101330000C48FFF7C8FB04F0800020B140210948A9
:10134000FFF7C3FB03E040210648FFF7BCFB802109
:101350000448FFF7BAFB6006040E681CC5B2082DEE
:10136000E5DB70BD000C014070B504460825102176
:101370001248FFF7A8FB80211048FFF7A4FB00BF2D
:1013800016E004F0800020B140210C48FFF79DFBDF
:1013900003E040210948FFF796FB80210748FFF74B
:1013A00094FB00BF80210548FFF78DFB6006040E0B
:1013B000281EA5F10101CDB2E3D170BD000C0140A2
:1013C00070B50446082510211348FFF77EFB00BFC7
:1013D00080211148FFF777FB00BF16E004F0800082
:1013E00020B140210C48FFF770FB03E040210A4880
:1013F000FFF769FB80210848FFF767FB00BF8021EA
:101400000548FFF760FB6006040E281EA5F10101E8
:10141000CDB2E3D170BD0000000C01402DE9F041D8
:101420003C48B0F900003C4908803C48C07850383E
:10143000384908803849B1F90010364AB2F900201D
:10144000881A01F0E3FB074635480168384601F089
:10145000F5FB05462F48B0F9000001F0D7FB074621
:1014600030480168384601F0E9FB0646294601F09C
:10147000B1FC044601F0AEFB00B22B4908800846DF
:10148000008840F20E61081A00B2284948802648B8
:10149000008840F24651081A00B2244908800846E4
:1014A000B0F9000040F21451884201DA084602E027
:1014B0001E48B0F900001D4908800846B0F9000038
:1014C000B0F5C86F02DD4FF4C86002E01748B0F90C
:1014D0000000164908800846B0F9000040F2145197
:1014E000884201DA084602E01048B0F902000F49CC
:1014F00048800846B0F90000B0F5C86F02DD4FF42F
:10150000C86002E00948B0F9020008494880BDE817
:10151000F081000026000020280000204400002068
:10152000200000201C0000202400002016000020C5
:10153000704700002DE9F0411848C07858B91748A5
:10154000007940B91548407928B915A2042128200E
:10155000FFF792FE1FE00020FFF7B5FC0F4800796F
:1015600000EB80004000122190FBF1F4E01704EB47
:101570005070C51005EBD570C0F347060748C0781A
:1015800064214843822190FBF1F0C7B206A23146A4
:101590003846FFF771FEBDE8F081000044000020EE
:1015A0004E6F5F46696E64007800000029B1064AFC
:1015B000D2690243044BDA6104E0034AD2698243F0
:1015C000014BDA61704700000010024029B1064A61
:1015D00092690243044B9A6104E0034A9269824390
:1015E000014B9A61704700000010024030B50021A5
:1015F0000022002400232D4D6D6805F00C0121B15F
:10160000042905D0082923D105E0294D056022E0F1
:10161000274D05601FE0254D6D6805F47012234DC0
:101620006D6805F48034022505EB92421CB9214D0A
:10163000554305600BE01D4D6D6805F400351DB187
:101640001C4D5543056002E0194D5543056002E00D
:10165000174D056000BF00BF144D6D6805F0F00127
:101660000909154D6B5C0568DD4045600F4D6D68DF
:1016700005F4E061090A104D6B5C4568DD4085604A
:101680000A4D6D6805F46051C90A0B4D6B5C4568E5
:10169000DD40C560054D6D6805F44041890B074D7F
:1016A0006B5CC568B5FBF3F5056130BD0010024009
:1016B00000127A0000093D0056000020660000205C
:1016C000704710B500F002F810BD00000CB5002006
:1016D000019000903348006840F480303149086040
:1016E00000BF3048006800F4003000900198401CB2
:1016F0000190009818B90198B0F5A06FF1D1294870
:10170000006800F4003010B10120009001E00020DA
:1017100000900098012843D12348006840F0100051
:10172000214908600846006820F003000860084668
:10173000006840F0020008601A4840681949486093
:101740000846406848600846406840F48060486049
:101750000846406820F47C1048600846406840F421
:10176000E81048600846006840F08070086000BFDC
:101770000C48006800F000700028F9D00948406863
:1017800020F00300074948600846406840F0020026
:10179000486000BF0348406800F00C000828F9D1F9
:1017A0000CBD00000010024000200240042808D1B7
:1017B0004FF0E021096941F004014FF0E02211618E
:1017C00007E04FF0E021096921F004014FF0E02229
:1017D000116170477047000010B51348006840F071
:1017E00001001149086008464068104908400E4948
:1017F0004860084600680E4908400B4908600846E2
:10180000006820F4802008600846406820F4FE004C
:1018100048604FF41F008860FFF753FF4FF00060EF
:101820000449086010BD0000001002400000FFF8ED
:10183000FFFFF6FE08ED00E030B589B005460C4626
:101840000121C802FFF7C2FE012140F60500FFF7A3
:10185000BDFE4FF41060ADF8200018208DF8230075
:1018600003208DF8220008A91D48FFF74FF8ADF8B6
:101870001850ADF814400020ADF81A00ADF816006D
:1018800005A9184800F08AF97020ADF8040001207D
:10189000ADF806006420ADF80A000220ADF80C0097
:1018A00001A9104800F0DEF87020ADF80400012016
:1018B000ADF806006420ADF80A0001A9094800F05F
:1018C0001DF90821074800F057F90121054800F0EB
:1018D000A0F80121034800F081F809B030BD0000F4
:1018E00000080140002C014010B501211E4800F005
:1018F0009FF8012833D11D480078401C1B4908700F
:101900001B480078401C1A490870084600783228A5
:1019100019DB1848006808B9012000E000201549CB
:1019200008600020124908701348007813490978AC
:10193000884204D011480178114800F0B6FA0F48E7
:1019400000780D4908700F480078012801D100F097
:10195000C9FAFEF7B9FCFFF761FDFEF759FE012158
:10196000014800F047F810BD000400406A00002064
:101970006B000020B08121426C0000202C00002070
:1019800000380140320000207FB505460C46012199
:101990000220FFF70BFEADF80850ADF80440002020
:1019A000ADF80600ADF80A0001A90B4800F0F6F802
:1019B00001221146084800F04CF81D208DF8000067
:1019C00003208DF801008DF8020001208DF803003E
:1019D0006846FFF7D9F97FBD0004004021B10288B5
:1019E00042F08002028004E002884FF67F731A40C2
:1019F00002807047CA430282704721B1028842F0D8
:101A00000102028004E002884FF6FE731A40028051
:101A1000704731B1B0F8442042F40042A0F84420AD
:101A200005E0B0F84420C2F30E02A0F8442070474D
:101A300030B50246002000230024158A05EA010380
:101A4000958905EA010413B10CB1012000E00020E2
:101A500030BD1AB183890B43838102E083898B43B4
:101A60008381704770B5002400220023058C4FF657
:101A7000FE7635400584028C8388048B4FF68F7583
:101A80002C40B51E2C400D882C43751E2A400D8914
:101A90002A434D882A43144DA8420BD0134DA84227
:101AA00008D0134DA84205D0124DA84202D0124DC5
:101AB000A84213D14FF6F7752A404D892A434FF6B5
:101AC000FB752A408D882A434FF6FF652B404FF661
:101AD000FF552B408D892B43CD892B438380048375
:101AE000CD888586028470BD002C01400034014001
:101AF00000400140004401400048014070B5002210
:101B000000230024058C4EF6FF7635400584038CB7
:101B10008488828B48F6FF752A404FF6FF452A409D
:101B20000D884FF6FF7606EA05252A434DF6FF7528
:101B30002B400D8906EA05352B434D8806EA05350D
:101B40002B430B4DA84202D00A4DA84208D14BF6B8
:101B5000FF752C408D894FF6FF7606EA85152C43DC
:101B600084808283CD88A0F84050038470BD00003B
:101B7000002C0140003401400A460021818B4FF2C5
:101B8000FF7319404FF6FF7303EA02231943818361
:101B9000704781867047A0F8401070470022028885
:101BA0001D4B98420ED01D4B98420BD0B0F1804F88
:101BB00008D01B4B984205D01A4B984202D01A4BC2
:101BC000984204D14FF68F731A404B881A43174B33
:101BD000984207D0164B984204D04FF6FF431A4064
:101BE000CB881A4302808B8883850B8803850A4B38
:101BF00098420BD0094B984208D00E4B984205D022
:101C00000D4B984202D00D4B984201D10B7A0386BE
:101C10000123838270470000002C01400034014002
:101C20000004004000080040000C0040001000408C
:101C300000140040004001400044014000480140C1
:101C400070B50024002540F225512D4800F06CF8B5
:101C5000002853D02A4800F023F92A492A4A12784A
:101C6000885429480078401C2749087008460078A5
:101C70000E283EDA23480078AA2834D10846007896
:101C800003283BDD1F484078552826D11D48807821
:101C9000C01C0978884231DC00BF05E01948005DAE
:101CA0002844C5B2601CC4B217480078801EA04208
:101CB000F4DA15480078401E1249085CA84204D1A5
:101CC000002501201149087002E000200F4908702A
:101CD000002500200C49087010E000200B49087016
:101CE000094908700AE00020084908700649087090
:101CF00004E00020054908700349087070BD000029
:101D00000038014044000020410000204000002035
:101D100021B1828942F40052828104E082894DF629
:101D2000FF731A408281704770B502460024002379
:101D30000025002040F66A16B14200D100BFC1F371
:101D4000421501F01F03012606FA03F3012D02D10B
:101D50009689334006E0022D02D1168A334001E015
:101D6000968A33400C12012606FA04F41688344091
:101D700013B10CB1012000E0002070BDF0B50346A6
:101D8000002400260025002040F66A17B94200D141
:101D900000BF1846C1F3421401F01F06012707FADD
:101DA00006F5012C01D10C3004E0022C01D11030D9
:101DB00000E014301AB107682F43076002E007689B
:101DC000AF430760F0BD00002DE9F04786B005463F
:101DD0000E460024A24600BFA1460027B08900B1EC
:101DE00000BF2F462C8A4CF6FF700440F088044355
:101DF0002C82AC894EF6F3100440B0883189084338
:101E0000718908430443AC81AC8A4FF6FF4004401B
:101E1000B0890443AC8201A8FFF7E8FB1F48874262
:101E200002D1DDF810A001E0DDF80CA0A88900F4D3
:101E3000004040B10AEBCA0000EB0A1031684900CB
:101E4000B0FBF1F807E00AEBCA0000EB0A103168BA
:101E50008900B0FBF1F86420B8FBF0F00401200920
:101E6000642101FB1089A88900F4004040B13220B0
:101E700000EBC900B0FBF1F000F00700044308E0FC
:101E8000322000EB09106421B0FBF1F000F00F00EC
:101E900004432C8106B0BDE8F08700000038014003
:101EA00001468888C0F308007047C1F308028280A9
:101EB000704700BFFEE7014600BF704701EB81029B
:101EC000054B1A7001EB8102044B1A704206120E88
:101ED000034B1A70704700003300002035000020CB
:101EE0003400002017480078012823DB16480078CA
:101EF000012815DB1349087800EBD0714910A0EBDD
:101F00004101012903D101201049086002E00020AD
:101F10000E4908600C480078401E0B49087010E01C
:101F20000B4800780849087006480078401E0549AB
:101F3000087006E00020054908600549087001495D
:101F4000087070473400002035000020A481214231
:101F50003300002010B54C4800781A30C2B200217E
:101F60000846FFF725F9182200211E20FFF720F967
:101F7000192200213220FFF71BF944A2002146203C
:101F8000FFF77AF94248427902232A210020FEF71E
:101F9000EFFA40A200216420FFF76EF93EA207216C
:101FA0000020FFF765F83A48C07864214843822151
:101FB00090FBF1F0C4B2224607210846FFF73AF839
:101FC00033480479E01704EB9070821007211E203B
:101FD000FFF730F833A202210020FFF74DF9344813
:101FE000B0F90000002805DB32A202215020FFF7E3
:101FF00043F904E030A202215020FFF73DF92C48BC
:10200000B0F9000000F076F90446032322462D21A2
:102010000220FEF7ADFA2948B0F90220042300217E
:102020001846FEF7A5FA2548B0F9002004232C2114
:102030001846FEF79DFA22480078022805D121A211
:1020400006214620FFF718F91CE01D4800780128FA
:1020500005D11EA206214620FFF70EF912E018480E
:102060000078032805D11BA206214620FFF704F9BA
:1020700008E013480078042804D119A2062146205C
:10208000FFF7FAF810BD00002C0000203A00000015
:1020900044000020636D0000282020202C202020F8
:1020A000290000007365725F647574790000000098
:1020B000240000202B0000002D000000160000204E
:1020C0001400002072756E202020200073746F7041
:1020D000202020004C5F66696E6420200000000014
:1020E000525F66696E6420200000000010B56FF03A
:1020F0000400FFF75BFB0A4800680A49B0FBF1F0F7
:10210000094908700846007800EB4001C1EBC01097
:102110004FF6FF7101EAC0000449088010BD0000BD
:102120000000002000127A003C0000203E00002049
:102130000146114A12884A434FF0E0235A610022B7
:102140009A611A46126942F001021A6100BF4FF00B
:10215000E022106900F001021AB100F48032002A76
:10216000F5D04FF0E022126922F001024FF0E02397
:102170001A6100229A6170473E00002038B51DA206
:1021800000210846FEF774FF1C48027800211E203B
:10219000FEF750FF1AA200215020FEF769FF1A48EF
:1021A000027800216E20FEF745FF18A202210020D0
:1021B000FFF762F816A204210020FFF75DF815482A
:1021C000006800F079FC0446012022460B463221CB
:1021D00000900220FEF7EEF80F48006800F06CFC5B
:1021E0000446012022460B46322100900420FEF7CF
:1021F000E1F838BD726F773A000000002A00002035
:10220000756E69743A0000002B000020435F500097
:10221000435F44001C0000202000002010B5FFF7A1
:10222000DBFAFFF763FFFEF707F8FEF769FE002011
:10223000FEF749FEFEF710FDFEF784FC472144F649
:102240001F60FFF7F9FA40F2473140F2E730FFF73D
:102250009BFB4FF4E13000F055F810BDFFF7DEFFB7
:10226000FEF738FC01210648FFF7C7FB01210548AE
:10227000FFF7C3FB03E0FDF7FBFFFEF785FCFAE782
:10228000002C01400004004070B500244021164895
:10229000FEF710FC054680211348FEF70BFC05EB0A
:1022A0004000C4B211480078A04201D0FEF7A4FD5E
:1022B0000E48047034B1012C08D0022C0AD0032C33
:1022C00010D10BE003200A4908700BE001200849F7
:1022D000087007E000200649087003E00220044966
:1022E000087000BF00BF70BD000801403A00002028
:1022F000150000200146002901DA484200E00846A6
:1023000000B2704710B586B00446012144F20400C3
:10231000FFF75CF94FF40070ADF8140003208DF85E
:10232000160018208DF8170005A91C48FEF7EEFAD4
:102330004FF48060ADF8140004208DF8170005A953
:102340001648FEF7E3FA25208DF8000003208DF8EB
:1023500001008DF8020001208DF803006846FEF7A9
:1023600013FD01940020ADF80800ADF80A00ADF8A7
:102370000C00ADF810000C20ADF80E0001A90848C3
:10238000FFF722FD012240F225510548FFF7F6FC38
:1023900001210348FFF7BCFC06B010BD0008014056
:1023A0000038014021F00042A2F16052B2F5801FD6
:1023B00001F0004328BFD2F17F6C0BD95FEA001C0B
:1023C00043EAC20242EB507018BF704728BF20F0AA
:1023D00001007047B2F5801FBCBF184670474FEA36
:1023E000410C1CF5001F02D2084600F0EEBC70B58F
:1023F00000F018FA00000089FFF7F6BF4FF0004028
:10240000A0F580007047000010B591EA030F48BFA7
:1024100083F0004300F16E82841A71EB030C05D245
:10242000121943EB0C03001B61EB0C01DFF824E1F4
:102430004FEA1154A4EB135C1EEA430F18BF9EEA47
:10244000445F73D023EA0E03DCF1200E21EA04512D
:1024500043F4801332D322FA0CFE10EB0E0023FA61
:102460000CFE41EB0E01CCF1200E03FA0EFE10EB38
:102470000E0051F10001B1F5801FCCF1200E32D2D7
:1024800001EB045112FA0EF2BDE8104058BF70473C
:10249000401C38BF5FEA420218BF7047002814BFD3
:1024A00020F0010041F100014FEA410313F5001F44
:1024B00038BF7047A1F1C04100F002BA012A43EBD6
:1024C0000302ACF1200CDCF11F0E32BF4FF0000E06
:1024D00023FA0CF310EB030041EB0451B4EB115F52
:1024E000D0D0A1EB045101F5801149085FEA30001A
:1024F00001EB04510ED350F1000038BF12FA0EFE6A
:1025000008D1BDE81040C9E7401C38BF5FEA42026D
:10251000CAD1C3E7BDE810404FEA410313F5001FDD
:1025200038BF7047A1F1C04100F0CAB99EEA445FCC
:1025300008D011EA5E0FBDE8104004BF01F0004171
:1025400000207047BDE8104070B500F06BF900BF87
:1025500064FBBE3E0000E0FF491058BFC1F140419E
:102560005B1058BFC3F140438B42EFF300807047CC
:102570004FEA41034FEA5353A3F58063D3F11E039F
:10258000C8BFD3F1210C0CDD4FF0004242EAC1225A
:1025900042EA505232FA03FC8CEAE17CACEBE17087
:1025A0007047102BC4BF0020704703F5787CBCF146
:1025B000FF3F04D06FF0004282EA2100704770B5FF
:1025C00000F030F94992248000207047F2E70000C3
:1025D0004FEA1153A3F58063D3F11E03A8BFD3F1D3
:1025E000200C08DB4FF0004242EAC12252EA50526E
:1025F00032FA03F0704709420BD4102BC4BF0020FD
:10260000704703F5787CBCF1FF3F05D04FF0FF30F9
:1026100070474FF00000704770B500F003F900BF3D
:102620004992248000207047F0E710F0004248BF34
:102630004042B0FA80F310FA03F10AD0C3F11D034F
:1026400003F580634FEA415002EB035202EBD121C4
:1026500070474FF00000704751EA030C17D41CF587
:10266000801F58BFBCF5801F00F10680994218BF3B
:10267000704708BF9042704707D711F5801F58BFB9
:1026800013F5801F19D499427047894270471CF591
:10269000801F08D5BCF5801FF7D58B4218BF704747
:1026A00008BF824270474FF4001C1CEB410F38BF3B
:1026B0001CEB430F01D28B42704770B500F0B2F8AB
:1026C000922449004FF000514FF08053FFF744BF70
:1026D000DFF848C170B51CEA111E1EBF1CEA1315B5
:1026E0009EEA0C0F95EA0C0F00F06F8081EA03045C
:1026F00023EA4C134EEAD47E21EA4C1141F48011B6
:1027000043F48013AE44A1FB024CA0FB0365AEF181
:102710007F7E361955EB0C05A1FB034C4CF10003F1
:10272000A0FB021C16EB0C06654153F100030942A5
:1027300018BF46F0010613F4007F0BD14FEA0331B6
:102740004FEA0530340341EA155140EA16506FF064
:1027500003020AE04FEAC3214FEAC520F40241EA2E
:10276000555140EA56506FF0020202EB2E4201EB47
:10277000025585EACE710AD05FEA440C18BF24F0F6
:10278000004450F1000041F1000120EAD47040F211
:10279000FE7C624500D270BDA84214BF4FF0804459
:1027A0004FF04044002E08BF0024BEF1806FA8BF48
:1027B000A1F1C041BDE8704080F282804FF000007E
:1027C00001F1C04101F0004170479EEA0C0F0CEA94
:1027D000131518BF95EA0C0F06D04FF0000081EAE0
:1027E000030E0EF0004170BD00F01CF88900013EA0
:1027F00000F007B800F009B84FEA430C5FEA5C5CF0
:1028000008D081EA030100F05BB84FEA410C5FEAAF
:102810005C5CF6D14FF00000014970470000FF07F3
:102820000000F87F0EF1020E2EF0030E5EF8046B2E
:10283000364205D4012A43EB030515F5001F12D8D3
:10284000012841EB010C1CF5001F0CD80ED14FEAFA
:10285000D17C15F5001F0CEB4C0C0CF1020C08BFE1
:102860004CEBD37C04E04FF0080C01E04FEAD37C42
:102870000CEB4C0526FA05F606F00706B6F1040C3B
:1028800006D20EEB860CBDE870404CF0010C6047A0
:10289000DFE80CF0090B02024FF000414FF000009E
:1028A000A1F5002170BD19461046012851EB010425
:1028B00018BFD4F5001484BF002001F0004170BDA2
:1028C0000808A0F500114FEA3101704791EA030FA3
:1028D00010B581F000413FF59FAD83F0004300F05B
:1028E00009B8000010B591EA030F48BF83F0004318
:1028F0003FF592AD841A71EB030C07D212198CF0DC
:10290000004C43EB0C03001B61EB0C01DFF8A4E16E
:102910004FEA1154A4EB135C1EEA430F18BF9EEA62
:10292000445F00F0B08023EA6E03524221EA045172
:10293000C3EB6E0338BF5B1EDCF1200E25D322FAF9
:102940000CFE10EB0E0043FA0CFE41EB0E01CCF135
:10295000200E03FA0EFE10EB0E0051F10001CCF137
:10296000200E29D412FA0EF201EB0451BDE81040FA
:1029700058BF7047401C1CBFB2F1004F7047002881
:102980000CBF491C20F00100704712EB020E43EB14
:10299000030218BF4FF0010E4EEA4202ACF1200CC8
:1029A000DCF11E0E54D943FA0CFE10EB0E0051F16F
:1029B000FF31CCF11E0ED5D50EF1010E12FA0EFE2E
:1029C000404141EB010101EB445C5FEA5C5C10D9E2
:1029D00010EBDE7001EB045138BFBEF1004FBDE8D3
:1029E000104018BF704700280CBF491C20F00100A0
:1029F000704730D24FEAD42C11F5001124F4006452
:102A00001BD0B1FA81F20B3AA41AA41ED2F1200312
:102A1000914030FA03F31943904001EBCC71002C44
:102A200001EB0451BDE81040A8BF704701F1C0415F
:102A30004FF0000001F000417047B0FA80F310FA47
:102A400003F100D110BDE41A173C4805C90AE4E7B8
:102A500001EB045110BD491001EB0451BDE81040D9
:102A60004FEA300002E04FF0000170474A0008BF13
:102A70000042F8D0B2F5001F28BF704701F00041B6
:102A80004FF0000070479EEA445F07D011EA5E0FE6
:102A9000BDE8104004BF002100207047BDE8104091
:102AA00070B5FFF7BFFE00BF40DFF63E83F0004188
:102AB000104670470000E0FF43004FEAD30C4FEA96
:102AC0003C0C43401FBF40070CF1605113F0FE4F18
:102AD00070471CF0006F03D100200CF000417047DC
:102AE0000CF0004343EA507010B540EACC0000F00F
:102AF00026F900BF000000924FEA0001FFF7E0BE98
:102B00004FF000414FF00000A1F500217047000098
:102B100090EA010F48BF81F0004100F16281421A42
:102B20003CBF801A89184FEAD0524FF07F4C1CEA04
:102B3000410FA2EBD15318BF9CEA026F00F03B801B
:102B40004FF0004C4CEA00204CEA012121FA03FC32
:102B500010EB0C0C1ED202F1FF325FEA1C2040EB9E
:102B6000C25038BF70471CF07F0F4FEA400C18BFAF
:102B7000BCF17F4F38BF7047C3F12003994008BFB5
:102B800020F00100BCF17F4F38BF7047A0F1C0407A
:102B900000F01BB94FEA3C00000A40EBC25028BFCE
:102BA0001CF0FF0F4FEA400CE6D018BFBCF17F4F7E
:102BB00038BF7047EAE79CEA026F05D010EA5C0F65
:102BC00008BF00F00040704710B500F0B8F800BF33
:102BD00064FBBE3E41000B0ED3F19E0208D950F4B7
:102BE00000034FEA032323FA02F048BF4042704734
:102BF00010B500F0A4F800BF49922480002070476F
:102C00006FF0004282EA20007047000010F000419F
:102C100048BF4042B0FA80F310FA03F2C3F19D03BB
:102C20000BD051EAC35101EB1220530638BF704755
:102C300000F1010008BF20F0010070474FF47F0C45
:102C40001CEAD0121EBF1CEAD11392EA0C0F93EAC1
:102C50000C0F00F0478090EA010F48BF42F48072E9
:102C60004FF0004C4CEA00204CEA012102EB030239
:102C7000A0FB0113A2F50002002918BF43F00103D5
:102C80005B0028BF4FEA330342EB22425FEA132C7A
:102C90004CEBC2502EBFBCEB436FB2F57C0F7047BC
:102CA0004FEA036CBCF1004F08BF20F00100B2F501
:102CB0007C0F38BF70470BD582F0FF0212F5803FC2
:102CC000C8BF704700F1C040D8BF00F00040704757
:102CD00000F5000C5FEA4C0C48BF7047B0F1C040F3
:102CE00000F073B890EA010F0CEAD11348BF42F428
:102CF0008072624538BF634504D280EA010000F06B
:102D00000040704710B500F01AF800BF8900013E7E
:102D100000F007B800F009B85FEA410C5FEA1C6CEC
:102D200008D080EA010000F050B85FEA400C5FEA8A
:102D30001C6CF6D14FF00040A0F5800070470EF1FA
:102D4000020E2EF0030E5EF8044B244204D44FEA28
:102D50004102B2F17F4F11D84FEA4003B3F17F4FE8
:102D60000CD80ED14FEAD07CB2F17F4F0CEB4C0C5B
:102D70000CF1020C08BF4CEBD17C04E04FF0080CC6
:102D800001E04FEAD17C0CEB4C0324FA03F404F08D
:102D90000704B4F1040C06D20EEB840CBDE810401D
:102DA0004CF0010C6047DFE80CF0070802024FF01E
:102DB0000040A0F5800010BD0846420018BFD2F1C7
:102DC000807288BF00F0004010BDFF2141EAD05062
:102DD000C005704790EA010F48BF81F000413FF500
:102DE0009EAE421A04D882F00042A0EB02001144C9
:102DF0004FEAD0524FF07F4C1CEA410FA2EBD15367
:102E000018BF9CEA026F4AD04FF0004C4CEA0020F9
:102E10004CEA012121FA03FCB0EB0C0C0FD412F0A8
:102E2000FE0F36D05FEA4C001DD5001240EBC250B9
:102E300038BF70471CF03F0F18BF70470BE0A2F17E
:102E400001025FEA1C2040EBC25038BF70471CF003
:102E50007F0F18BF7047C3F12003994014BF401E75
:102E600020F00100704780084FEA122308BF704726
:102E7000B0FA80FCA2EB0C02CCF1280C60FA0CF04A
:102E800093EA122F04BF00EBC25070474FEAC370A1
:102E90007047130A5FEADC1008BF7047F6E79CEA48
:102EA000026F04D010EA5C0F08BF0020704710B515
:102EB000FFF745FF40DFF63E81F00040704700001D
:102EC000000000000000002F0000000007000700C5
:102ED00000147F147F1400242A7F2A1200626408E1
:102EE000132300364955225000000503000000005E
:102EF0001C224100000041221C000014083E08145E
:102F00000008083E0808000000A060000808080843
:102F10000808000060600000002010080402003E65
:102F20005149453E0000427F400000426151494600
:102F3000002141454B31001814127F1000274545F0
:102F40004539003C4A494930000171090503003602
:102F50004949493600064949291E00003636000015
:102F6000000056360000081C2A49080800141414F2
:102F700014140808492A1C080002015109060032ED
:102F80004959513E007C1211127C007F4949493653
:102F9000003E41414122007F4141221C007F4949BE
:102FA0004941007F09090901003E4149497A007FF2
:102FB0000808087F0000417F4100002040413F0198
:102FC000007F08142241007F40404040007F020CF7
:102FD000027F007F0408107F003E4141413E007F98
:102FE00009090906003E4151215E007F0919294661
:102FF0000046494949310001017F0101003F40403D
:10300000403F001F2040201F003F4038403F0063EA
:10301000140814630007087008070061514945430C
:1030200000007F41410000552A552A5500004141CA
:103030007F000402FF020400002040FF4020000047
:1030400001020400002054545478007F484444385E
:1030500000384444442000384444487F00385454E5
:10306000541800087E0901020018A4A4A47C007F63
:10307000080404780000447D4000004080847D0006
:10308000007F102844000000417F4000007C0418AD
:103090000478007C0804047800384444443800FC78
:1030A000242424180018242418FC007C0804040894
:1030B00000485454542000043F444020003C404009
:1030C000207C001C2040201C003C4030403C004440
:1030D00028102844001CA0A0A07C004464544C4448
:1030E000141414141414BAE3CDD8BFC6BCBCB5E78D
:1030F000B5F7D0A3D7BC00E000FF102002F29292F7
:10310000929292F2020000FF0000404F4444444477
:10311000444F401010FF1090040484E49C84848485
:103120000444827F01040201FF40404040FF00242C
:10313000A4FEA3220022CC0000FF0000000601FF35
:1031400000010404040404FF0202021010FF1090A6
:1031500008888888FF8888880844827F01808040AA
:10316000432C102846818000F888888888FF88884A
:103170008888F80000001F080808087F8888888869
:103180009F80F042CC0000FE829292FE929282FEDC
:1031900000003F10887F001E1212125E807F001018
:1031A000D0FF9010804828090E082848880300FFA7
:1031B00000018080432C102C438080020CE04020D2
:1031C000F84F4849FE48484808047F000000FF22A5
:1031D00022223F22222220000000000000000000E6
:1031E00000000000000000000000F80000000000E7
:1031F0000000333000000000100C06100C06000028
:103200000000000000000040C07840C0784000048A
:103210003F04043F040400007088FC0830000000F4
:103220001820FF211E0000F008F000E01800000048
:10323000211C031E211E0000F00888700000001EE3
:103240002123241927211010160E00000000000071
:1032500000000000000000000000E0180402000070
:103260000000071820400000020418E000000000E1
:1032700040201807000000404080F08040400002DD
:1032800002010F01020200000000F0000000000136
:1032900001011F010101000000000000000000808A
:1032A000B0700000000000000000000000000000FE
:1032B0000101010101010100000000000000000007
:1032C00030300000000000000000008060180400A2
:1032D0006018060100000000E010080810E000007F
:1032E0000F102020100F00001010F8000000000048
:1032F00020203F202000000070080808887000008F
:10330000302824222130000030088888483000000E
:1033100018202020110E000000C02010F80000002E
:10332000070424243F240000F808888808080000C7
:1033300019212020110E0000E010888818000000DC
:103340000F112020110E0000380808C838080000AE
:1033500000003F000000000070880808887000002E
:103360001C222121221C0000E010080810E00000AF
:1033700000312222110F00000000C0C00000000038
:10338000000030300000000000008000000000005D
:103390000080600000000000008040201008000055
:1033A000010204081020004040404040404000041A
:1033B00004040404040400000810204080000000FD
:1033C00020100804020100007048080808F00000FE
:1033D00000003036010000C030C828E810E00007C7
:1033E00018272423140B000000C038E00000002040
:1033F0003C23020227382008F888888870000020C3
:103400003F202020110E00C03008080808380007AF
:103410001820202010080008F808080810E00020F4
:103420003F202020100F0008F88888E808100020AE
:103430003F20202320180008F88888E80810002082
:103440003F200003000000C03008080838000007D3
:10345000182020221E020008F808000008F80820A2
:103460003F210101213F20000808F8080800000062
:1034700020203F2020000000000808F8080800C0B5
:103480008080807F00000008F888C028180800208D
:103490003F20012638200008F80800000000002026
:1034A0003F20202020300008F8F800F8F80800201D
:1034B0003F003F003F200008F830C00008F8082017
:1034C0003F200007183F00E01008080810E0000F38
:1034D00010202020100F0008F808080808F000202D
:1034E0003F210101010000E01008080810E0000F72
:1034F00018242438504F0008F888888888700020E5
:103500003F2000030C3020007088080808380000B5
:1035100038202121221C00180808F808081800008B
:1035200000203F2000000008F808000008F808000C
:103530001F202020201F000878880000C8380800BD
:103540000007380E010000F80800F80008F8000332
:103550003C0700073C0300081868808068180820B2
:10356000302C03032C30200838C800C8380800006D
:1035700000203F2000000010080808C8380800207C
:1035800038262120201800000000FE020202000060
:1035900000007F40404000000C30C00000000000F0
:1035A0000000010638C00000020202FE0000000018
:1035B0004040407F000000000004020202040000BE
:1035C000000000000000000000000000000000807B
:1035D0008080808080808000020204000000000063
:1035E00000000000000000000080808080000000DB
:1035F00019242222223F2008F800808000000000C9
:103600003F112020110E000000008080800000008B
:103610000E112020201100000000808088F800009A
:103620000E112020103F20000080808080000000CC
:103630001F222222221300008080F0888888180030
:1036400020203F202000000000808080808000003B
:103650006B94949493600008F800808080000020B0
:103660003F210000203F20008098980000000000CB
:1036700020203F20200000000000809898000000DB
:10368000C08080807F000008F800008080800020DB
:103690003F24022D302000000808F8000000000040
:1036A00020203F20200000808080808080800020BB
:1036B0003F20003F20003F8080008080800000206D
:1036C0003F210000203F200000808080800000001B
:1036D0001F202020201F00808000808000000080AC
:1036E000FFA12020110E00000000808080800000DB
:1036F0000E112020A0FF808080800080808000202C
:10370000203F212000010000008080808080000098
:1037100033242424241900008080E08080000000ED
:1037200000001F202000008080000000808000003A
:103730001F202020103F208080800000808080009B
:10374000010E300806010080800080008080800F1C
:10375000300C030C300F000080800080808000005F
:1037600020312E0E312000808080000080808080FB
:10377000818E7018060100008080808080800000AB
:1037800021302C2221300000000000807C02020049
:10379000000000003F404000000000FF000000006B
:1037A000000000FF0000000002027C80000000001A
:1037B00040403F000000000000000000008080004A
:1037C00000000000000101000000000000000000F7
:1037D00000000000000000000000000000000000E9
:1037E00000000000000000000000000000000000D9
:1037F00000000000000000181C3C3C7CFC3C3C7CB1
:10380000D8000000000000000000000000000000E0
:1038100000000000000000000000000000000000A8
:103820000000000000000000000000000000000098
:103830000000000000000000000000000000000088
:103840000000000000000000000000000000000078
:103850000000000000000000000000000000000068
:1038600000000000002060E0C0C0C0C080C0800038
:10387000000000000000000000000000FF80402069
:103880001F00000000000000000000000000000019
:10389000000000000000000000000080C08080C028
:1038A000C0C0C06060000000000000000000000018
:1038B0000000000000000000000000000000000008
:1038C00000000000000000000000000000000000F8
:1038D00000000000000000000000000000000000E8
:1038E000000000000000000000010119FFFFFFFFC1
:1038F00073F2F6E4E4ECC8C8C0C080F0FFF0E0F07A
:10390000D0D8FCFEFFFFFFFFFCC0C0C0E0E0F0F03D
:10391000E0C0C0C4E4E4E2F2727BFFFFFFFF1901E4
:103920000101000000000000000000000000000095
:103930000000000000000000000000000000000087
:103940000000000000000000000000000000000077
:1039500000000080808080808080C040C0F0F8F04F
:10396000F0E060F0F0707070703030303FBF9F98C2
:10397000988888C9C9C3C3E7EFFFFFFFFFFFFFFFB8
:10398000FFFFFFFFFFFFFFFFFFFFFFFFFFFFFFFF47
:10399000FFFFF7E3E3C1C9C8C8C8999F9F9FB83824
:1039A000383030307070707070F0F8F8F8F0E06017
:1039B0004040404040C0C0C0808080808080808087
:1039C00000000000000000060202020203030301DF
:1039D000010101010101010100002070FFFFFFFF53
:1039E000FFFFFE7E3E3E3E3E3F1F1F1F1F1F1F1F4D
:1039F0000F0F0F0F0F0F07030101010103878F8FB7
:103A00008F87BFFFFFFFFFFFFFDF87878F87810360
:103A1000030101010107070F0F0F0F1F1F1F1F1FBA
:103A20001F1F1F3F3F3E3E3C7FFFFFFFFFFFFF3852
:103A30001000000000000000000000000001010173
:103A4000010101010101010000000000000000006F
:103A500000000000000000000000000003FFFFFF66
:103A6000FF1F010000000000000000000000000037
:103A7000000000000000000000000000003F3F3F89
:103A80003F3F3F7FFFFFFFFFFFFFFFFFFFFFFF1FE6
:103A90000000000000000000000000000000000026
:103AA00000000000000000000003FFFFFFFF030014
:103AB0000000000000000000000000000000000006
:103AC00000000000000000000000000000000000F6
:103AD0000000000000000000000000000007FFFFE1
:103AE000FF000000000000000000000000000000D7
:103AF00000000000000000000000000000000000C6
:103B000000000000000000000000000000000000B5
:103B100000000000000000000000000000000000A5
:103B20000000000000000000000003FFFF03000091
:103B30000000000000000000000000000000000085
:103B40000000000000000000000000000000000075
:103B50000000000000000000000000000000F0FF76
:103B6000FFF0C000000000000000000000000000A6
:103B70000000000000000000000000000000000045
:103B80000000000000000000000000000000000035
:103B90000000000000000000000000000000000025
:103BA000000000000000000000007C7F7F78000023
:103BB0000000000000000000000000000000000005
:103BC000000000000000000000F888888888FF8856
:103BD000888888F800000000000000000000000055
:103BE0000000000000000000001F080808087F888F
:103BF0008888889F80F0000000000000000000001E
:103C0000000000000000000000FE0282828282FAB2
:103C10008282828282020000000000000000000018
:103C20000000000000000080601F40404040407FD6
:103C300040404458404000000000000000000000E8
:103C4000000000000000000000F888888888FF88D5
:103C5000888888F8000000000000000000000000D4
:103C60000000000000000000001F080808087F880E
:103C70008888889F80F0000000000000000000009D
:103C8000000000000000001060028C004464544DED
:103C900046445464C404000000000000000000001A
:103CA0000000000000000004047E0180403E00008F
:103CB000FE00007E80E00000000000000000000028
:103CC00000000000000000404042CC0040A09E8266
:103CD00082829EA020200000000000000000000062
:103CE000000000000000000000003F908840432CCE
:103CF0001028464180800000000000000000000005
:103D000000000000000000100C4444444445C64438
:103D100044444444140C0000000000000000000073
:103D2000000000000000008040201E2040407F4432
:103D300044444444404000000000000000000000F3
:103D4000000000000000001060028C00FE02F20281
:103D5000FE00F800FF00000000000000000000006E
:103D60000000000000000004047E018047300F10B6
:103D7000270047807F0000000000000000000000D6
:103D800000000000000000202020BEAAAAAAAAAAC3
:103D9000AAAABE20202000000000000000000000B1
:103DA00000000000000000008080AFAAAAAAFFAABD
:103DB000AAAAAF8080000000000000000000000000
:103DC000000000000000001010D0FF9014E4AFA429
:103DD000A4A4AFE404000000000000000000000004
:103DE00000000000000000040300FF00894B2A1AB5
:103DF0000E1A2A4B8880000000000000000000001E
:103E000000000000000000101090909090901010A2
:103E1000FF1010111610000000000000000000004C
:103E200000000000000000002060203F1010100083
:103E3000030C102040F8000000000000000000000B
:103E4000000000000000000808E8292E28E8080803
:103E5000C80C0BE80808000000000000000000008B
:103E6000000000000000000000FF0949897F0000F9
:103E70000F40807F000000000000000000000000F4
:103E800000000000000000000000FC242424242284
:103E90002222232220200000000000000000000059
:103EA000000000000000004020180700FE424242CF
:103EB000424242FE0000000000000000000000003E
:103EC00000000000000000000000000000FF404073
:103ED00040404040000000000000000000000000E2
:103EE000000000000000004040404040407F404053
:103EF0004040404040400000000000000000000042
:103F000000000000000000020202020202FE0202A3
:103F100042820202020200000000000000000000D5
:103F200000000000000000000000000000FF000092
:103F3000000001060000000000000000000000007A
:103F4000000000000000000808080888780F080832
:103F50000808080808080000000000000000000031
:103F60000000000000000020104846414141417F10
:103F700041414141404000000000000000000000BD
:103F80000000000000000008080808C8380F0808F2
:103F900008080808080800000000000000000000F1
:103FA0000000000000000008040201FF41414141FF
:103FB000414141FF0000000000000000000000003F
:103FC0000000000000000000002010F8262C6AFE0F
:103FD000D8988000000000000000000000000000F1
:103FE000000000000000000004042414150D7F06EA
:103FF0000A1232222220000000000000000000000F
:10400000000000000000000000000000246CE058E8
:10401000561000000000000000000000000000003A
:10402000000000000000000000004646251D070DAE
:104030001525414140000000000000000000000084
:104040000000000000000000000080808080FC80F4
:104050004040404000000000000000000000000060
:10406000000000000000000000004020100C0306CB
:104070000830202040000000000000000000000088
:10408000000000000000000000C04020ACA0A4E040
:104090009826227020200000000000000000000090
:1040A0000000000000000000000404040444453E39
:1040B00002020202020000000000000000000000F6
:1040C00000000000000000001CE2818181B1B20309
:1040D000010181B2B2B2B200000000000000000095
:1040E00000000000000000000F121212100818104B
:1040F000101008081012120000000000000000005C
:1041000000000000000000007048484848C80E0148
:1041100001010EC8484848000000000000000000EF
:1041200000000000000000000C121211110804042D
:1041300003040C0811111200000000000000000030
:104140000000000000000000F8040404A4A601011F
:1041500001A6A4040404F800000000000000000010
:10416000000000000000000003040404041C101000
:1041700010141414121213000000000000000000BC
:10418000000000000000000038C701018976149685
:104190006101E106649418000000000000000000C6
:1041A0000000000000000000001F101C1512121972
:1041B0000C12131010110E0000000000000000008F
:1041C0000000000000000000FE42424A8A02024253
:1041D000BE02D2D2D2121200000000000000000085
:1041E0000000000000000008171010101710121E29
:1041F0001110121212121200000000000000000044
:1042000000000000000000008EF282EED2C2C52540
:1042100025A3E2CEF282F2000000000000000000C0
:1042200000000000000000001F1010100E08080819
:1042300009181819161010000000000000000000F6
:1042400000000000000000006050CC422000040488
:1042500004FC040404000000000000000000000052
:1042600000000000000000000012151212101010D3
:10427000101F1010101000000000000000000000CF
:1042800000000000000000002038E62010C040546C
:1042900054D454745CC00000000000000000000012
:1042A000000000000000000002131212081009268E
:1042B000223F02060910000000000000000000007C
:1042C00000000000000000404042CC00504EC848B2
:1042D0007FC84848400000000000000000000000C7
:1042E000000000000000000040201F20504C434010
:1042F000404F50505C4000000000000000000000F3
:10430000000000000000001010FF100082864A52DA
:10431000A2524A86808000000000000000000000D9
:104320000000000000000042827F01001012121203
:10433000FF12121210000000000000000000000038
:104340000000000000000000E42C35A6742C2402BC
:10435000F21AD612F2020000000000000000000075
:1043600000000000000000403F80894422110880C6
:104370004F300F102FC000000000000000000000B0
:10438000000000000000002010E824272424E4247A
:10439000342C20E0000000000000000000000000BD
:1043A0000000000000000000003F42424242434241
:1043B000424242434078000000000000000000003C
:1043C00000000000000000000000000000000000ED
:1043D00000000000000000000000000000000000DD
:1043E000000000000000000000C0C040602020303D
:1043F000301818088C8C84C4C4C4E4E6E6E6E6E60B
:10440000E6E6E6E6E6E6E6E6E6E6E6E4C4C4C48416
:104410008C8C081810303020206040C080000000D4
:10442000000000000000000000000000000000008C
:10443000000000000000000000000000000000007C
:10444000000000000000000000000000000000006C
:104450000000000000C04070301808CEC4C6E3F170
:10446000F1F9F8F8FCFEFEFFFFFFFFFF4F5F0111BF
:1044700049FFFFFFFFFFFFFFFFFFFFFFFFFFFFFF02
:10448000FFFFFF7F7F7F7F1F474FFFFFFFFFFFFE85
:10449000FEFCF8F8F9F1F1E3C6C4CC08183060402E
:1044A000C00000000000000000000000000000004C
:1044B00000000000000000000000000000000000FC
:1044C0000000000080C0C0701C0E86C3E17138FC83
:1044D0003E9EFFFFFFFFFFFFFFFFFFFFFFFFFFFF0E
:1044E000FFFFFFFFBEBDD06083D797BFFFFFFFFF79
:1044F000FFFFFFFFFFFFFFFFFFDFDFEEF6F2C08EE3
:104500007E7EFFFFFFFFFFFFFFFFFFFFFFFFFFFFBD
:10451000FFFFFF1F9EFEFCF8F1E1C3860C1870C080
:10452000C08000000000000000000000000000004B
:104530000000000000000080E0740C05C7E0F0FC03
:10454000FEFFFFFFFFFFE0F3FCE3E0DCA1C1471F3C
:1045500027BFBBFFFFFFFFFF7F3F3F1F9F8FCC4663
:10456000672727272323331313131313131313332B
:1045700023232727276747CF8F9E1C3F3F7FFFFFBF
:10458000FFFFFFFFEFDF9D3C3C3CE5C9D9F1808494
:10459000FDF9FCFFFFFEFCF0E0C7070C70E08000B7
:1045A0000000000000000000000000C0E07C0F01DF
:1045B000C0F8FCFFFFFFFFFFFFFFFFFFFFFFFFFF54
:1045C000FFFFFFFFF9FCFF793F1E8F477311090CB6
:1045D0000402030101000008D8D0D0E0A0A0C0C0B0
:1045E000C0C0C040C0C0C0C0A0A0E0D0D0D80800AB
:1045F0000101010302040C091173478F1F3979FD72
:10460000FEFEFDF9FFFFFFFFFFFFFFFFFFFFFFFFC4
:10461000FFFFFFFCF8C0010F78E080000000000001
:1046200080E0FC1F0000FCFEFFFFFFFFFFFFFFFF1D
:10463000FFFFFFFFFFFFFFFFFFFFFF3F0783F118B3
:104640000C0381808488F0F8F0E0C6C6C4C604F488
:10465000F7F707F7F7F7F7F7F7F7F7F7F7F7F7F7DA
:10466000F7F7F707F7F7F404C6C4C6C6E0F0F8F0AA
:1046700088848081030C18F183073FFFFFFFFFFF51
:10468000FFFFFFFFFFFFFFFFFFFFFFFFFFFFFEFC3E
:1046900000001FF8E0000000FF0F0000F0FFFFFF28
:1046A000FFFFFFFFFFFFFFFFFFFFFFFFFFFFFFFF1A
:1046B000FF0300F80E0300000000000100FEFEFEF4
:1046C000001C1C1C1C1C00FFFFFF00060200000059
:1046D000000000000000000000020400FFFFFF00D7
:1046E0001C1C1C1C1C00FEFEFE0001000000000043
:1046F000030EF80003FFFFFFFFFFFFFFFFFFFFFFB9
:10470000FFFFFFFFFFFFFFFFFFF800000FFE0000AD
:10471000FF000000FFFFFFFFFFFFFFFFFFFFFFFFA6
:10472000FFFFFFFFFFFFFFFFFF0000FF8080808093
:1047300080808080D0FFFFFF808080808080D0FFDD
:10474000FFFFD0808080808080808080808080801B
:10475000808080D0FFFFFFD0808080808080FFFF3E
:10476000FFD08080808080808080FF0000FFFFFF7E
:10477000FFFFFFFFFFFFFFFFFFFFFFFFFFFFFFFF49
:10478000FFFF000000FF000000000000000000002C
:104790000000000000000000000000000000000019
:1047A0000000000000000000000000000000000009
:1047B00000000000000000000080F0381C0F0F1CFB
:1047C00038F00000000000000000000000000000C1
:1047D00000000000000000000000000000000000D9
:1047E00000000000000000000000000000000000C9
:1047F00000000000000000000000000000000000B9
:1048000000000000000000000000000000000000A8
:104810000000000000000000000000000000000098
:104820000000C0E0781C0E87F1380E07070E38F341
:10483000870E1C78E0C000000000000000000000AF
:104840000000000000000000000000000000000068
:104850000000000000000000000000000000000058
:104860000000000000000000000000000000000048
:104870000000000000000000000000000000000038
:1048800000C0E06020202020202020A0E0703C0F0D
:10489000C3F0383C2723212020202020202123275B
:1048A0003C78E0C30F3C70E0A02020202020202096
:1048B00020E0E00000000000000000000000000018
:1048C00000000000000000000000000000000000E8
:1048D000000030F0F0B0303030B0B0B0B0B0B0B0B8
:1048E000B0B0B0B0B0B0B0B0B0B0B0B0F07C1E8777
:1048F000C1F03C1E8682FA3E86C3F1781C0F03028B
:104900000202020202020202020202020202020287
:1049100002030F3C70E183861EFAC2860E3EF8E069
:10492000C30E3CF0B0B0B0B0B0B0B0B0B0B0B0B04A
:10493000B0B0B0B0B0B0B0B0B03030B0B0F0700027
:10494000000001070E3C70E0C31F7860C0800000CB
:104950000000000080C0707E07C3F07C1EC7E078B6
:104960003C8FC7E17E07C3C0C0C0C0C0C0C0C0C0CC
:10497000C0C0C0C0E0E0E0E0E0A0E0E0B0B030F0F7
:10498000F000000001030F7CE0C3870E3C70C70FEE
:104990003CF8C1877F70C0C000000000000000002C
:1049A00080C0781E87C360783C0F000000000000C4
:1049B000000000000000031F3870E1870E3CF0F09B
:1049C0003C1F07C1E07C0F87E1783CEFF13C1E07FC
:1049D0000300000001FFC00FFFC181C1E1F1F9FF39
:1049E000FFFF8380808080C0C0C0C1C1E3E70300B7
:1049F0000000000000000001070E3C70E30F1CF9EE
:104A0000C38F7EE0C1870F3C70E0E0381C0FC3E02D
:104A1000781E0701000000000000000000000000F8
:104A200000000000000080E0F13F1F1CF0C3871E63
:104A30003FF3E0F81ECFF31C1F070000000000004A
:104A400000000007FF0003FF1F1F1F1F1F1F1F1F66
:104A50009FFFFFFFFF7F1F1F0703010000000000F3
:104A60000000000000000000000003071E78E1873E
:104A70001E71E3CF1E38F0E30F1E3CFFC380000021
:104A80000000000000000000000000000000000026
:104A90000000007E7F430000083C7F41773E0E47C8
:104AA000737E0F3F7840000000000000000000000F
:104AB00000000F7F404F4848484848486C6E6F6F71
:104AC000676564666666626262627B0F0F0701005B
:104AD000000000000000000000000040617B3F7803
:104AE00060430F0E387F3E0C0000437F7E000000C5
:104AF00000000000000000000000000000000001B5
:104B0000039FF8F0E081070F7FF9FC0E07070F7D88
:104B1000F3C78E3878E0C00000000000F8F8F8D83D
:104B2000030202020202020202030303030303035D
:104B300003030303030303030100002020E0A0207C
:104B4000000000000000E0F8380E8FC3F13F0FCEE8
:104B5000FC78E1831F38F8F8BE0F03000000000066
:104B60000000000000000000000080C0E0781C8F02
:104B7000E1703F0F1E3CF88183071E7CF0C00003EC
:104B8000070E3C79E79E3CF0E080060F0306080024
:104B90000000808080808000000000000080808015
:104BA0008080000000000000000C0603030E80C09F
:104BB000F0781E87E3783E0E83E3F03E078380E0C3
:104BC000F93F0F3C70E1830E1CF8C080000000002C
:104BD00000000000C0E03C0E87E1F0B89E878080B6
:104BE0008080808081838FBEF8F0E0879EBCF0E0FB
:104BF000808083879EBCF0E3CF3E70E0C0C0C0C021
:104C0000C1C2CFDAF1E0C0C0C0C0C0FFC2FFFFC761
:104C1000C3C0C0C0C0C0C0C0C0E0303FC7E1703C2E
:104C20001E87E1783E0F0381E0FC9E8F83808080A9
:104C30008080808083879EF8E1871E3C30E0C00042
:104C4000000F0B08080809090909090909090909D8
:104C5000090909090909090909093979E9C9090984
:104C600079E9C909090D0F0F38F9E78F1C38F88861
:104C700008080808080808080808080808080808B4
:104C80000888F8380E8FC3F0381F83E1F0380E0F14
:104C9000C3F0781C0F0F0909090909090909090955
:104CA0000909090909090909080808080F0C080079
:104CB00000000000000000000000000000000000F4
:104CC000000000000000000000000107071C3C314C
:104CD0003131313131313131313333F1F131317100
:104CE000F1B13131313131313131F1F1391D0783D8
:104CF000F93C3E3733313131333130383C0E070027
:104D000000000000000000000000000000000000A3
:104D10000000000000000000000000000000000093
:104D20000000000000000000000000000000000083
:104D30000000000000000000000000000000000073
:104D40000000000000000000000003071E7861C1A1
:104D5000873E704060701CCFC1703C0E070101009F
:104D60000000000000000000000000000000000043
:104D70000000000000000000000000000000000033
:104D80000000000000000000000000000000000023
:104D90000000000000000000000000000000000013
:104DA0000000000000000000000000000000000003
:104DB0000000000000000000000000000001031FD0
:104DC000307070381E070000000000000000000076
:104DD00000000000000000000000000000000000D3
:104DE00000000000000000000000000000000000C3
:104DF0000000000000000000000000001C4E000841
:104E00000000002070000000280100088C4E0008FF
:104E100070000020600600004401000800A24A045F
:104E2000000000000000000001020304060708095A
:104E30000103000000000000000080400000A040CE
:104E4000000000000000010101000000000000005F
:104E50000000000000000000000000000000000052
:104E6000AA55075000000000005600000000000096
:104E70000000000000000102030401020304060711
:0C4E800008090204060800000000000001
:040000050800018965
:00000001FF
